:100000000C94F2000C940F010C940F010C940F014E
:100010000C940F010C940F010C940F010C940F0120
:100020000C940F010C940F010C94D4190C94121A17
:100030000C940F010C940F010C940F010C940F0100
:100040000C940F010C940F010C940F010C940F01F0
:100050000C940F010C94C81D0C940F010C940F010B
:100060000C940F010C940F010C940F010C940F01D0
:100070000C940F010C941F010C940F010C940F01B0
:100080000C940F010C940F010C940F010C940F01B0
:100090000C940F010C940F010C940F010C940F01A0
:1000A0000C940F010C94771D0C940F0173177B17A0
:1000B000DA18ED17DA18DA18DA18D118DA18DA18A7
:1000C000DA18DA18DA18DA18DA18DA18DA18DA18A0
:1000D000DA18DA18DA18DA18DA18DA18DA18DA1890
:1000E000DA18DA18DA18DA18DA18DA18DA18DA1880
:1000F000DA18DA18DA18DA18DA18DA18DA18DA1870
:10010000DA18DA18DA18DA18DA18DA18DA18DA185F
:1001100079187F189218A518BC1800010000C701B3
:10012000120002000084014300030000800104016A
:100130000309046A011402030904520116030309A6
:100140000444010C0C03310032003300340035004C
:1001500000001603550053004200200053006500C4
:100160007200690061006C000000140359006F0008
:100170007500720020004E0061006D0065000000F7
:100180000403090409024300020100C0320904000B
:1001900000010202010005240010010524010101F3
:1001A000042402060524060001070582031000400E
:1001B00009040100020A00000007050302400000D4
:1001C000070584024000001201000202000010C076
:1001D000167A040001010203010001C112018036F8
:1001E0000181360011241FBECFEFDAE0DEBFCDBFA4
:1001F00012E0A0E0B1E0E8ECF8E402C005900D9256
:10020000AA3CB107D9F729E0AAECB2E001C01D92DF
:10021000A936B207E1F70E94421C0C9462240C94A8
:10022000000080E680937C0083E080937B0008954B
:100230008EEA80937A00089510927A0008951F92B2
:100240000F920FB60F9211242F933F934F935F930A
:100250006F937F938F939F93AF93BF93EF93FF938E
:10026000809179000E946701FF91EF91BF91AF915A
:100270009F918F917F916F915F914F913F912F91BE
:100280000F900FBE0F901F90189520910401309190
:1002900005013093E6022093E5023093E8062093AF
:1002A000E7069093E2028093E1027093E402609388
:1002B000E302089580910401909105019093E60274
:1002C0008093E5029093E8068093E7060895E09115
:1002D000E502F091E6029F012F5F3F4F3093E60267
:1002E0002093E50280838091E5029091E6022091BF
:1002F0000201309103018217930731F4E091E1028A
:10030000F091E202099508952091000130910101D8
:100310008217930769F480910401909105019093ED
:10032000E6028093E502E091E102F091E202099594
:100330000895CF93E091E706F091E8069F012F5FC3
:100340003F4F3093E8062093E706C0818091020179
:10035000909103012817390731F4E091E302F091FD
:10036000E402099514C080910001909101012817C1
:10037000390769F480910401909105019093E80692
:100380008093E706E091E302F091E40209958C2F57
:10039000CF91089580910401909105012091E70685
:1003A0003091E8068217930758F4309102012091AA
:1003B00003019093E8068093E706832F922F089518
:1003C00020910201309103013093E8062093E70663
:1003D000089580910401909105012091E5023091EA
:1003E000E6028217930758F430910201209103012D
:1003F0009093E6028093E502832F922F0895209137
:100400000201309103013093E6022093E502089542
:10041000CF93DF9342305105C0F0DB01FC019A011C
:10042000CD91DD91C193D193225031092230310514
:10043000B8F79A01225031092E7F2E5F3F4F820F6D
:10044000931F620F731F417055274115510549F0E5
:10045000DB01FC01480F591F9D919193E417F507AB
:10046000D9F7DF91CF910895CF93DF93EC01A88165
:10047000B981109711F14C91413258F04A3349F14A
:10048000FD0131969F019191913228F09A33D1F775
:1004900004C0942F9D019A3399F4CD010196281739
:1004A000390789F4242F30E0C901C09782309105C3
:1004B00068F41296B983A8830EC08FEF9FEF0BC02C
:1004C00080E090E008C08FEF9FEF05C08FEF9FEFB7
:1004D00002C09D01E2CFDF91CF9108958F929F924C
:1004E000AF92BF92CF92DF92EF92FF920F931F9342
:1004F000CF93DF93FC012481222309F446C0EC0151
:10050000C2A4D3A4E4A4F5A45C01FEE2AF0EB11C26
:1005100001E010E0A7019601B50189810E94DE1675
:10052000811135C01C828E8D9F8DA8A1B9A1B70104
:10053000A601481B590B6A0B7B0B8E899F89A88DDE
:10054000B98D481759076A077B0718F58B80912CDE
:1005500082E088169104F8F08E899F89A88DB98D64
:10056000C80ED91EEA1EFB1E01E010E0A70196018D
:10057000B50189810E94DE16E1E08E1A9108F1E052
:100580008F16910449F780E007C080E005C081E044
:1005900003C080E001C080E0DF91CF911F910F91F7
:1005A000FF90EF90DF90CF90BF90AF909F908F9093
:1005B00008958F929F92AF92BF92FF920F931F93D5
:1005C000CF93DF93EC014A015B018AA59BA5ACA503
:1005D000BDA584179507A607B707E9F0CE010E94CD
:1005E0006E02F82E811118C001E010E0A5019401FF
:1005F000BE01625D7F4F89810E948816882331F099
:10060000FF24F39488248A94982C54018AA69BA6EC
:10061000ACA6BDA601C0F12C8F2DDF91CF911F910B
:100620000F91FF90BF90AF909F908F900895CF93C0
:10063000DF93EC011C828FEF9FEFDC018AA79BA761
:10064000ACA7BDA7CE010E94D902811123C0FE0133
:10065000E45DFD4F8081918185359A4AE9F4E85C3B
:10066000F14080819181A281B381BB27863491447E
:10067000A445B10599F0C058DF4F488159816A817E
:100680007B81772781E0463451446445710539F414
:1006900080E005C083E003C082E001C080E0DF911C
:1006A000CF9108950097C9F0DC01ED91FC9111976D
:1006B0003097A9F020812223A1F02681378112965C
:1006C0008D919C9113972817390769F481810E94B5
:1006D000811680FF0AC089E0089589E0089589E0C5
:1006E000089589E0089589E0089580E008952F92A3
:1006F0003F924F925F926F927F928F929F92AF92B2
:10070000BF92CF92DF92EF92FF920F931F93CF93FE
:10071000DF93CDB7DEB76D970FB6F894DEBF0FBE8F
:10072000CDBF6C01CB01B42ED6011D921C920E944C
:1007300034027C0199230CF404C2FC01EE0FFF1F6C
:10074000E453FD4F008111810115110509F4FBC12E
:10075000F60111830083D8018C91882369F01196EA
:100760008C910E94811680FD07C0BB2009F4EDC169
:1007700082FFEDC18AE08EC2F8011082E1828E2DE7
:100780000E94AC1580FDE5C1BB2009F402C282FDC8
:10079000E2C1FFC18081882329F0448055806680B2
:1007A000778004C04E2C5F2C672E762ED9014D9297
:1007B0005D926D927D929D017096E417F50751F759
:1007C0004E01B1E18B0E911C6894772471F8F5010C
:1007D000C190D190E190F1905F01C114D104E10486
:1007E000F10441F0B701A601C8010E94170381116D
:1007F00002C00DC0872DA814B90449F703C0C12C4D
:10080000D12C7601833009F4A8C18111A8C1D80187
:10081000D9968D919C91DA978115924009F0A1C1EA
:10082000F801EC5BFF4F40805180612C712C41142A
:1008300051046104710429F43E9640805180628025
:100840007380F801468A578A608E718EA6ADA383A5
:100850008FEF8A0F823008F086C1F3ADF98B2F2F0E
:10086000F8012283222309F480C1822F90E09C01A9
:100870002150310982239323892B09F078C1FF96F7
:1008800020803180F80131862086C1018F70992740
:10089000892B09F06EC1EF5BFF4F80809180A12C06
:1008A000B12C81149104A104B10429F43D968080F7
:1008B0009180A280B380F80104ACF5ADE02D3097B3
:1008C00009F459C1B0E0A30192010E940F216A8F7F
:1008D0007B8F8C8F9D8F9F0140E050E02E8B3F8B54
:1008E000488F598FC101929582958F7089279F708B
:1008F0008927280F391F411D511DDA01C9012A8D91
:100900003B8D4C8D5D8D280F391F4A1F5B1F2A8B35
:100910003B8B4C8B5D8B82169306A406B50608F4C0
:100920002CC1C501B401621B730B840B950BE989C3
:100930002E2F30E040E050E00E94E720DA01C901AC
:10094000211531054105510509F419C1263FFFE084
:100950003F074105510518F0E2E0E98B02C0F1E0E4
:10096000F98B863F9F4FA105B10508F02AC14901C7
:100970005A0182E0880E911CA11CB11CD80152962C
:100980008D929D92AD92BC925597F801C28ED38EF6
:10099000E48EF58E8E899F89A88DB98D8C0D9D1D55
:1009A000AE1DBF1D868F978FA0A3B1A34A895B8917
:1009B0006C897D894C0D5D1D6E1D7F1D46A357A35F
:1009C00060A771A7F989F33069F5232809F0D9C028
:1009D000F801E65AFF4F80819181A281B381F8012D
:1009E00082A393A3A4A3B5A3880C991CAA1CBB1C27
:1009F000880C991CAA1CBB1CFFEF8F0EF1E09F1EF8
:100A0000A11CB11C072E79E0B694A7949794879403
:100A10007A95D1F7702D481459046A047B0408F4C0
:100A2000B2C0FBC0232809F4B0C02A8D3B8D4C8D89
:100A30005D8D820F931FA41FB51FF80182A393A39E
:100A4000A4A3B5A3F989F23029F4880C991CAA1C37
:100A5000BB1C0AC1A3E0B0E0A50194010E940F21D4
:100A6000DC01CB01B695A7959795879521E0822269
:100A70009924AA24BB24880E991EAA1EBB1EF4C06A
:100A8000B701A6014F5F5F4F6F4F7F4FC8010E94B4
:100A9000D902811139C0D80115961C92F801E45D84
:100AA000FD4F8081918185359A4A89F5F80186A5A7
:100AB00097A5A0A9B1A982359245A146B14451F5A7
:100AC000F801EE5EFD4F80819181A281B381823772
:100AD0009247A144B14609F5349680819181A28163
:100AE000B381F80186879787A08BB18BE65EFD4FB7
:100AF00080819181A281B381F80182879387A48745
:100B0000B587F3E0F98B0BC0E3E0E98B08C0F3E0B5
:100B1000F98B05C0E3E0E98B02C0F3E0F98BE989CA
:100B2000D801EC938091CA029091CB0201969093E8
:100B3000CB028093CA0217969C938E93169780E0FF
:100B4000A9C08BE0A7C08CE0A5C080E0A3C080E076
:100B5000A1C083E09FC08AE09DC081E09BC08DE082
:100B600099C08DE097C08DE095C08DE093C08DE079
:100B700091C08DE08FC08DE08DC08DE08BC08DE089
:100B800089C08DE087C08DE085C08DE083C08DE099
:100B900081C040E050E0BA01C8010E9417038130D3
:100BA00009F02DCEF801E051FE4F9E012F5F3F4F1F
:100BB0005901A801405D5D4FE12CF12C70E060E02F
:100BC000E9CD49015A0162E0860E911CA11CB11CBD
:100BD000D80152968D929D92AD92BC925597F80194
:100BE000C28ED38EE48EF58E8E899F89A88DB98DA5
:100BF0008C0D9D1DAE1DBF1D868F978FA0A3B1A329
:100C00008A899B89AC89BD898C0D9D1DAE1DBF1D38
:100C100086A397A3A0A7B1A7D8CE8FEF9FEFDC0143
:100C2000F80186879787A08BB18B82879387A487EB
:100C3000B58780E88583E25AFF4F808191810197D3
:100C400009F41ECFF3E0F98B6ACF8FEF9FEFDC0141
:100C5000F80186879787A08BB18B82879387A487BB
:100C6000B58780E885835BCFFFEF8F0EF1E09F1E95
:100C7000A11CB11C072E79E0B694A7949794879491
:100C80007A95D1F7702D481459046A047B0408F44E
:100C90007ECFDBCF6D960FB6F894DEBF0FBECDBF13
:100CA000DF91CF911F910F91FF90EF90DF90CF9048
:100CB000BF90AF909F908F907F906F905F904F907C
:100CC0003F902F900895CF92DF92EF92FF92FC0118
:100CD0009A01AB012250310941095109C288D388D8
:100CE000E488F58882E0C81AD108E108F1082C15DB
:100CF0003D054E055F0568F4A281B0E00E940F211A
:100D0000C6A0D7A0E0A4F1A46C0D7D1D8E1D9F1D73
:100D100003C060E070E0CB01FF90EF90DF90CF90D8
:100D20000895AF92BF92CF92DF92EF92FF920F930E
:100D30001F93CF93DF93EC016A017B014230510591
:100D40006105710508F4ABC08A899B89AC89BD89AE
:100D5000481759076A077B0708F0A6C088818230C8
:100D600009F44DC0833009F46CC0813009F0A1C092
:100D70008A0116950795040F151FC801892F992719
:100D800086954E8D5F8D68A179A1480F591F611D11
:100D9000711DCE010E94D902811190C058018FEFC0
:100DA000A81AB80A1170FE01E00FF11F16A5C501BF
:100DB000892F992786954E8D5F8D68A179A1480F5F
:100DC000591F611D711DCE010E94D90281117AC087
:100DD00081E0B822CA0DDB1D8EA5612F70E0782B53
:100DE000C0FE09C0729562956F7067277F70672794
:100DF00080E090E072C07F7080E090E06EC0452F90
:100E0000562F672F77278E8D9F8DA8A1B9A1480FE8
:100E1000591F6A1F7B1FCE010E94D902811156C043
:100E2000CC0CDD1CEE1CFF1CE894C0F881E0D8223D
:100E3000EE24FF24CC0DDD1D6EA57FA580E090E0A3
:100E40004CC08E8D9F8DA8A1B9A1689416F8769597
:100E50006795579547951694D1F7480F591F6A1F04
:100E60007B1FCE010E94D902811134C0CC0CDD1C45
:100E7000EE1CFF1CCC0CDD1CEE1CFF1C8CEFC822F2
:100E800081E0D822EE24FF24FE01EC0DFD1D86A595
:100E900097A5A0A9B1A9BC01CD019F701EC061E0BA
:100EA00070E080E090E019C061E070E080E090E0E8
:100EB00014C061E070E080E090E00FC06FEF7FEF62
:100EC000CB010BC06FEF7FEFCB0107C06FEF7FEF60
:100ED000CB0103C06FEF7FEFCB01DF91CF911F916B
:100EE0000F91FF90EF90DF90CF90BF90AF9008955B
:100EF000AF92BF92CF92DF92EF92FF920F931F9328
:100F0000CF93DF93EC018B017D836C83CE80DF80F8
:100F1000E884F98481E0C816D104E104F10409F4FD
:100F20008CC0E881F98182899389A489B589C81622
:100F3000D906EA06FB0608F082C0C114D104E10418
:100F4000F104C1F48081833041F482A193A1A4A172
:100F5000B5A10097A105B10559F4808591850817C1
:100F6000190708F06EC062A173A184A195A137C0D2
:100F70006C017D01A28080E1A89E500111240A1518
:100F80001B0538F1B701A601888199810E9491065D
:100F90006B017C018FEFC816D806E806F80609F445
:100FA00052C082E0C816D104E104F10408F44DC037
:100FB000E881F98182899389A489B589C816D906FF
:100FC000EA06FB0608F043C00A191B090A151B05AF
:100FD000C8F6B701A601888199810E946306CA8676
:100FE000DB86EC86FD86611571058105910589F129
:100FF0009801329522952F7023273F702327DC011B
:10100000CB01820F931FA11DB11D8E879F87A88BD7
:10101000B98B0F701127000F111F02951295107FC9
:101020001027007F1027025D1F4F88819981800F54
:10103000911F9B8B8A8B80E00DC082E00BC082E009
:1010400009C082E007C081E005C082E003C082E001
:1010500001C082E0DF91CF911F910F91FF90EF903F
:10106000DF90CF90BF90AF9008954F925F926F92B4
:101070007F928F929F92AF92BF92CF92DF92EF9228
:10108000FF920F931F93CF93DF93EC016A017B01D3
:1010900028013901423051056105710508F4D7C0B6
:1010A0008A899B89AC89BD89481759076A077B07DC
:1010B00008F0CFC08881823009F465C0833009F41C
:1010C00089C0813009F0C7C05A01B694A794A40E14
:1010D000B51EC501892F992786954E8D5F8D68A114
:1010E00079A1480F591F611D711DCE010E94D902BF
:1010F000182F8111CEC045018FEF881A980A31E070
:10110000B322C0FE21C0FE01EA0DFB1D86A5282FDB
:101110002F7030E1439EC0011124822B86A781E00D
:101120008C834E8D5F8D68A179A1C401892F992789
:101130008695480F591F611D711DCE010E94D9026D
:10114000882309F48EC089C0FE01EA0DFB1D46A666
:1011500081E08C834E8D5F8D68A179A1C401892FB8
:1011600099278695480F591F611D711DCE010E9458
:10117000D902882309F480C072C0EC0FFD1F46A677
:1011800081E08C8386C0452F562F672F77278E8D61
:101190009F8DA8A1B9A1480F591F6A1F7B1FCE01BF
:1011A0000E94D902182F811174C0CC0CDD1CEE1CDA
:1011B000FF1CE894C0F881E0D822EE24FF243EE230
:1011C000C30ED11CFE01EC0DFD1D5182408281E059
:1011D0008C835FC08E8D9F8DA8A1B9A1689416F8ED
:1011E00076956795579547951694D1F7480F591FEF
:1011F0006A1F7B1FCE010E94D902182F811149C09E
:10120000CC0CDD1CEE1CFF1CCC0CDD1CEE1CFF1CF2
:101210008CEFC82281E0D822EE24FF243EE2C30EE8
:10122000D11CFE01EC0DFD1D80819181A281B38155
:1012300088279927AA27B07F482A592A6A2A7B2A11
:10124000408251826282738281E08C8322C012E0EC
:1012500020C012E01EC012E01CC0182F1AC0182FA8
:1012600018C0F401F170689413F876946794579459
:1012700047941694D1F781CFF401F170DE01AE0FDF
:10128000BF1F9E969C91907F852D8F70492E482A76
:1012900074CF812FDF91CF911F910F91FF90EF902D
:1012A000DF90CF90BF90AF909F908F907F906F9086
:1012B0005F904F9008952F923F924F925F926F925E
:1012C0007F928F929F92AF92BF92CF92DF92EF92D6
:1012D000FF920F931F93CF93DF93EC012A013B0101
:1012E0004115510561057105B9F48A849B84AC846C
:1012F000BD8481149104A104B10461F18A899B89A0
:10130000AC89BD8988169906AA06BB0638F1812CDE
:10131000912C5401839422C00E9491066B017C01A0
:10132000623071058105910508F499C08FEFC816E8
:10133000D806E806F80609F497C08A899B89AC8923
:10134000BD89C816D906EA06FB0608F492C0530107
:10135000420104C0812C912C5401839475016401D5
:101360006894222421F8312C00E010E02FEFC21AFB
:10137000D20AE20AF20A8A899B89AC89BD89C81619
:10138000D906EA06FB0658F082E088169104A1040B
:10139000B10408F473C0C22CD32CE02EF12EB70197
:1013A000A601CE010E949106611571058105910586
:1013B00099F06F3F2FEF72078207920709F463C01D
:1013C000613071058105910509F462C0C814D90422
:1013D000EA04FB0459F661C08C2C9D2CAE2CBF2C6A
:1013E0000FEF1FEF2FEF3FE0B701A601CE010E94E4
:1013F000350881112DC0411451046104710459F064
:101400000C2D1D2D2E2D3F2DB301A201CE010E94CA
:10141000350881111DC08A869B86AC86BD868E8567
:101420009F85A889B9898F3F2FEF9207A207B2073E
:10143000C9F10197A109B1098E879F87A88BB98B44
:101440008D8181608D836C2D7D2D8E2D9F2D33C0E0
:10145000813069F161E070E080E090E02CC061E0F3
:1014600070E080E090E027C06FEF7FEF8FEF9FEF9D
:1014700022C06C2D7D2D8E2D9F2D1DC060E070E053
:1014800080E090E018C06FEF7FEF8FEF9FEF13C009
:1014900061E070E080E090E00EC060E070E080E02D
:1014A00090E009C06C2D7D2D8E2D9F2D04C06FEF17
:1014B0007FEF8FEF9FEFDF91CF911F910F91FF9003
:1014C000EF90DF90CF90BF90AF909F908F907F90E4
:1014D0006F905F904F903F902F9008957F928F92E2
:1014E0009F92AF92BF92CF92DF92EF92FF920F93B3
:1014F0001F93CF93DF93DC011496CD91DC91159768
:10150000219609F407C11E968D909D90AD90BC90D8
:10151000519781149104A104B10409F4FDC07B0129
:101520008C016E01BFE0CB22DD24C114D10409F08F
:10153000D5C0EFEF8E1A9E0AAE0ABE0ADC011E96D7
:101540008D929D92AD92BC9251971A964D915D915C
:101550006D917C911D97411551056105710549F407
:10156000ED91FC9180859185C817D90708F0D6C008
:10157000B5C0DC01ED91FC91228130E021503109B0
:10158000CE01929582958F7089279F708927282395
:101590003923232B09F0A2C0CF010E9491064B01F1
:1015A0005C01623071058105910508F4B9C06F3F97
:1015B0007F4F8F4F9F4F09F4B5C0D801ED91FC913B
:1015C00082899389A489B58988169906AA06BB06DB
:1015D00008F472C0EF2809F4A7C0D8011A964D91FB
:1015E0005D916D917C911D97CF010E945B094B012C
:1015F0005C01611571058105910509F497C06130A1
:1016000071058105910509F493C06F3F7F4F8F4F9E
:101610009F4F09F48FC0D8018D919C910E946E025A
:1016200081118AC0F80180819181FC01BE96825DA2
:101630009D4F1192E817F907E1F7D801ED90FC9062
:10164000B501A401C7010E946306F70162A773A751
:1016500084A795A7E12CF12C7724739419C0748288
:10166000D8018D919C910E946E02811167C0D801B2
:10167000ED91FC9182A593A5A4A5B5A50196A11D08
:10168000B11D82A793A7A4A7B5A7BFEFEB1AFB0ACA
:10169000D801ED91FC91828190E0E816F906F8F20C
:1016A00082A593A5A4A5B5A58E199F09A109B10985
:1016B00082A793A7A4A7B5A7F80182869386A486DC
:1016C000B586B501A401808191810E946306D8018D
:1016D0001E966D937D938D939C935197F801D583BE
:1016E000C483CC0CDD1CCC0CDD1CCC0CDD1CCC0C68
:1016F000DD1CCC0CDD1CFEE2CF0ED11CD8018D917F
:101700009C911197C80ED91E5396DC92CE92529797
:1017100080E015C084E013C084E011C084E00FC0F5
:1017200082E00DC081E00BC084E009C087E007C003
:1017300082E005C081E003C081E001C081E0DF916B
:10174000CF911F910F91FF90EF90DF90CF90BF90BE
:10175000AF909F908F907F9008951F93CF93DF93CA
:1017600000D000D000D0CDB7DEB79C838B837E83C2
:101770006D83142F7A836983CE0101960E9434020F
:10178000992334F1FC01EE0FFF1FE453FD4F01904C
:10179000F081E02D309709F01082EB81FC813097C9
:1017A000E9F010822B813C81880F991FFC01E453E2
:1017B000FD4F31832083232B69F0113069F440E021
:1017C000BE016B5F7F4FCE0103960E9477030EC070
:1017D0008BE00CC080E00AC080E008C0880F991F31
:1017E000FC01E453FD4F1182108280E026960FB673
:1017F000F894DEBF0FBECDBFDF91CF911F9108954A
:101800002F923F924F925F926F927F928F929F9210
:10181000AF92BF92CF92DF92EF92FF920F931F93FE
:10182000CF93DF93CDB7DEB7AF970FB6F894DEBF97
:101830000FBECDBF7CA36BA3009709F493C249A749
:101840001C01DC011D921C924E71BE016D5D7F4F2B
:10185000CE0101960E94770381110BC3CE014796FA
:101860009E8B8D8BCBA0DCA0F60180818F3211F096
:101870008C3519F4FFEFCF1ADF0A29A52F712DA798
:101880001F82188619861A86D6018C91803270F4D0
:1018900060E070E0CE0101960E9478071C8A1B8AE6
:1018A000E12CF12C882309F48FC295C26894BB24E3
:1018B000B5F8A12C712C6894662463F8512C412C46
:1018C0006EA65FA6F601AF0181918F32E1F38C35F0
:1018D000D1F3ED89FE89FEA3EDA3CF010B96B19262
:1018E000E817F907E1F7DA01EA2CF72C8A2D972D92
:1018F000862C952C042DBA0101961D91113208F405
:1019000046C21F3209F43DC21C3509F43AC21E32E8
:1019100009F42AC2E814F90408F07FC20AC0000FD3
:10192000000FEEA4FFA40F2EFBE08F2EF02D912CC4
:10193000E3CF11230CF471C2412F50E04232510524
:1019400009F481C2E1E2F1E09C018191882309F46C
:1019500011C290E048175907C1F786E07BC20260C8
:1019600006C02FE9210F2A3110F401601052EDA1B9
:10197000FEA1EE0DFF1D108397012F5F3F4F7901F0
:10198000BBCFEF2809F449C2ADA1BEA12C91253EE1
:1019900011F4E5E0EC93F8E08F16910419F4092FA7
:1019A000000F000F902F9370913009F48061902FF9
:1019B0009C70943009F48860ADA1BEA11B968C93F5
:1019C0006A2D772DCE0101960E9478078111EBC117
:1019D0004F85588969897A8989819A810E94D902BB
:1019E0008111E1C1EB88FC88F70180818823D9F05F
:1019F000838583FD0FC04D895E89DA019701255FDC
:101A00003F4F04C0E217F30709F4C7C191918D91CC
:101A10009817C1F36A2D772DCE0101960E946E0AA8
:101A20008823B1F2C0C1ED89FE89938592FD0DC274
:101A300085E010C2D7011B968C911B9784FF07C2CB
:101A40005A968D919C915B97A0E0B0E0E981FA8174
:101A50002081233061F4F7014489558960E070E00A
:101A6000BA0155274427842B952BA62BB72B8F83A0
:101A70009887A987BA8726CF8111D9C146C060E06F
:101A800070E0CE0101960E9478078111EFC14F8569
:101A9000588969897A8989819A810E94D90281113C
:101AA000E5C1EB89FC898081853E59F0882349F0A6
:101AB00061E070E0CE0101960E946E0A882339F33E
:101AC000D5C14F85588969897A8989819A810E940F
:101AD000D9028111B2C1EB89FC89CF0180961192A4
:101AE000E817F907E1F76D897E894BE050E08B89B3
:101AF0009C890E940802E981FA8181E08483FDA526
:101B0000F860FDA7EB88FC8809C0D7011B968C9173
:101B1000817109F069C1B9A5B2FD68C1EDA5E3FF06
:101B2000CCC080E090E0A1E2B8E4F7018687978717
:101B3000A08BB18B868B978BA08FB18F1386D7012B
:101B4000148E158E168E178EC980DA80828C938C37
:101B5000A12CB12CF6018081833069F454968D91CB
:101B60009C915597A0E0B0E0DC0199278827882A4E
:101B7000992AAA2ABB2AD7015B961C921E925A97D1
:101B800055961C921E92549781E0F601848381142D
:101B90009104A104B10409F490C022A533A544A581
:101BA00055A529A73AA74BA75CA7B2E08B169104CD
:101BB000A104B10408F41FC182899389A489B5895D
:101BC00088169906AA06BB0608F017C18DA29EA228
:101BD000AFA2B8A641C04DA15EA16FA178A5C60174
:101BE0000E9491062B013C0161157105810591054B
:101BF00009F441C0613071058105910509F4FFC008
:101C00006F3F7F4F8F4F9F4F09F4FBC000E010E004
:101C100098014DA15EA16FA178A5C6010E9435086B
:101C20008111F0C0F60186859785A089B1898F3F23
:101C3000FFEF9F07AF07BF0759F00196A11DB11D28
:101C4000F60186879787A08BB18B8581816085831C
:101C50004DA25EA26FA278A6F60182899389A4891B
:101C6000B5892DA13EA14FA158A5281739074A07CC
:101C70005B0708F4B0CF89819A8131E0831A91081B
:101C8000A108B108DC011A968D929D92AD92BC928A
:101C90001D9749A55AA56BA57CA50E94D90288234A
:101CA00079F0E7C08111B5C0F701838584FDAEC02E
:101CB000F9A5F1FF02C080FDABC02DA523FF03C035
:101CC0003DA530623DA7E981FA8182A593A5A4A52F
:101CD000B5A5F101828F938FA48FB58FF78EE68E15
:101CE000EDA5D1011496EC93149715961C920981D9
:101CF0001A81D7015A968D919C915B97A0E0B0E034
:101D0000F8012081233061F4F7014489558960E0AE
:101D100070E0BA0155274427842B952BA62BB72BAF
:101D2000F10186879787A08BB18BF701848D958D04
:101D3000A68DB78DF10182879387A487B587168218
:101D4000178210861186168A178A108E118E1183BB
:101D50000083D80116968D919C9117979383828367
:101D600080E087C089E085C0E8E08E16910409F420
:101D7000D6CD6FC0C9012FEB210F2A3108F4EFCD6A
:101D8000F0CD6B01C80ED91E902F842DFACD6B01BA
:101D9000C80ED91E902F84E0F4CDDA011B968C91E9
:101DA00082FF48CE06C0ED89FE899385843029F4F0
:101DB0003DCEE114F10499F407C0EB88FC8899A5A5
:101DC0009C7109F059CE6ECF19A51C7199F5E12CC3
:101DD000F12C86E01EC019A51C7149F51AC089A511
:101DE0008C7109F092CE60CF87E001C088E0882333
:101DF00009F463CF3EC082E005C082E003C082E008
:101E000001C081E0882309F45BCF33C084E001C0C6
:101E100087E0882309F464CF2CC0EB88FC8886E037
:101E2000DACFBDA5B860BDA7EB88FC88F2CF8430BF
:101E3000C1F725CE86E001C087E0EDA5E860EDA7FB
:101E4000EB88FC88E6CF86E005C084E003C085E02F
:101E500001C086E0EB88FC8899A59C7141F722CFF0
:101E6000FDA5F860FDA7EB88FC88D3CF843021F373
:101E7000F7CFAF960FB6F894DEBF0FBECDBFDF91A0
:101E8000CF911F910F91FF90EF90DF90CF90BF9077
:101E9000AF909F908F907F906F905F904F903F900A
:101EA0002F9008952F923F924F925F926F927F9260
:101EB0008F929F92AF92BF92CF92DF92EF92FF925A
:101EC0000F931F93CF93DF93EC014B016A015901EC
:101ED000F901118210820E94520381110CC18D817F
:101EE000811109C18C8180FF03C18A859B85AC85E6
:101EF000BD854E815F8168857985841B950BA60B16
:101F0000B70BA60160E070E084179507A607B70736
:101F100008F46C01C114D10409F4ECC04E815F8156
:101F200068857985DB01CA019170AA27BB27892BB7
:101F30008A2B8B2B09F098C0E881F981128111500E
:101F4000DB01CA01072E79E0B695A795979587958D
:101F50007A95D1F7702D182329F5452B462B472B61
:101F600029F46E857F858889998907C04A895B89AC
:101F70006C897D89CF010E949106623071058105CF
:101F8000910518F482E08D83B6C06F3FFFEF7F07A5
:101F90008F079F0719F481E08D83ADC06A8B7B8B1F
:101FA0008C8B9D8B288039804A895B896C897D89DF
:101FB000C1010E946306611571058105910519F43F
:101FC00082E08D8398C02B013C01410E511C611CA5
:101FD000711C7601EF2CFF24E694E114F10409F45E
:101FE0003FC0F1014281242F30E0C701810F911DD4
:101FF0002817390718F47901E11AF1088701A301BC
:102000009201B401F10181810E948816882319F0A0
:1020100081E08D8370C0E881F98184818823E1F0BB
:1020200082A593A5A4A5B5A584199509A609B70904
:10203000A70160E070E084179507A607B70760F472
:10204000BF01625D7F4F982F8827990F40E052E0D3
:10205000880D991D0E940802FE2CEE24FF0C2DC055
:102060004E8A5F8A688E798E2E813F81317080E042
:1020700092E0821B930B76018C159D0508F47C0180
:102080004E895F89688D798D888199810E94D902F6
:10209000882319F081E08D832EC08E819F81A885D1
:1020A000B9859170AA27BB278E9668817981680FC0
:1020B000791FA701C4010E9408028E0C9F1C8E810B
:1020C0009F81A885B9858E0D9F1DA11DB11D8E8391
:1020D0009F83A887B987F501808191818E0D9F1D0F
:1020E00091838083CE18DF0809F018CF80E003C009
:1020F00087E001C080E0DF91CF911F910F91FF90A9
:10210000EF90DF90CF90BF90AF909F908F907F9097
:102110006F905F904F903F902F9008952F923F9235
:102120004F925F926F927F928F929F92AF92BF92E7
:10213000CF92DF92EF92FF920F931F93CF93DF9393
:10214000EC014B016A015901F901118210820E94D0
:10215000520381116DC18D8181116AC18C8181FF12
:1021600066C18E819F81A885B985AC01BD014C0DEA
:102170005D1D611D711D481759076A077B0708F42B
:1021800040C1C114D10409F43CC14E815F8168850E
:102190007985DB01CA019170AA27BB27892B8A2B7D
:1021A0008B2B09F0E8C0E881F98112811150DB0125
:1021B000CA01072E79E0B695A795979587957A95E8
:1021C000D1F7702D182309F042C0452B462B472B21
:1021D00081F46E857F8588899989611571058105EE
:1021E0009105A1F440E050E0BA01CF010E945B09E3
:1021F00007C04A895B896C897D89CF010E945B0990
:10220000611571058105910509F4FBC06130710507
:102210008105910519F482E08D830AC16F3FFFEFBC
:102220007F078F079F0719F481E08D8301C16A8BB7
:102230007B8B8C8B9D8B4E845F8468887988452846
:102240004628472821F46E877F87888B998BE88101
:10225000F98142A553A564A575A58E899F89A88D8E
:10226000B98D481759076A077B0741F4CF010E94CF
:102270006E02882319F081E08D83DAC028803980CE
:102280004A895B896C897D89C1010E946306611559
:1022900071058105910519F482E08D83C9C02B0178
:1022A0003C01410E511C611C711C7601EF2CFF2476
:1022B000E694E114F10409F43FC0F1014281242FB6
:1022C00030E0C701810F911D2817390718F47901F3
:1022D000E11AF1088701A3019201B401F1018181A2
:1022E0000E94DE16882319F081E08D83A1C0E88169
:1022F000F98182A593A5A4A5B5A584199509A60978
:10230000B709A70160E070E084179507A607B70733
:1023100078F4982F8827990FB401680F791F40E04F
:1023200052E0CF018E960E940802E881F981148262
:10233000FE2CEE24FF0C4CC04E815F8168857985B0
:102340008A859B85AC85BD85481759076A077B0739
:1023500070F0C1010E946E02882319F081E08D8324
:1023600067C0E881F98142A653A664A675A64E8A85
:102370005F8A688E798E2E813F81317080E092E095
:10238000821B930B76018C159D0508F47C014E8908
:102390005F89688D798D888199810E94D90288230F
:1023A00019F081E08D8344C08E819F81A885B98515
:1023B0009170AA27BB278E9628813981A701B40185
:1023C000820F931F0E940802E881F98121E0248393
:1023D0008E0C9F1C8E819F81A885B9858E0D9F1DB7
:1023E000A11DB11D8E839F83A887B987F5018081C8
:1023F00091818E0D9F1D91838083CE18DF0809F097
:10240000C4CE8E819F81A885B9854A855B856C8500
:102410007D85481759076A077B0720F48A879B87C1
:10242000AC87BD878C8180628C8380E001C087E0AF
:10243000DF91CF911F910F91FF90EF90DF90CF90A0
:10244000BF90AF909F908F907F906F905F904F90D4
:102450003F902F9008950F931F93CF93DF93EC013C
:102460000E945203982F811198C08C8185FF95C0DE
:102470004A8D5B8D6C8D7D8D888199810E94D902FA
:10248000982F81118AC0EE8DFF8D838580628387AE
:102490008A859B85AC85BD85848F958FA68FB78FE8
:1024A0008E859F85A889B989938F828FB58BA48BE0
:1024B00080E090E0A1E2B8E4868B978BA08FB18F8B
:1024C000138A128A8C818F7D8C83E881F98181E067
:1024D00084830990D881C02DCE010E946E02982F6E
:1024E00081115BC08881833009F04DC08D818130BE
:1024F00009F049C0BE01625D7F4FFB01CE01825DE4
:102500009D4F1192E817F907E1F785E59AEAFE0178
:10251000E45DFD4F9183808382E592E5A1E6B1E41D
:102520008EA79FA7A8ABB9AB82E792E7A1E4B1E67B
:102530007A9780839183A283B3838E859F85A889B0
:10254000B989349680839183A283B3838A859B85DE
:10255000AC85BD85349680839183A283B3838A8DB5
:102560009B8DAC8DBD8D9C01AD012F5F3F4F4F4FBB
:102570005F4F2AA73BA74CA75DA701E010E0898128
:102580000E94DE161D8240E050E060E089810E94DA
:10259000531791E0811101C090E0892FDF91CF9115
:1025A0001F910F910895CF93DF93EC010E942B129E
:1025B000811107C0CE010E945203811102C019820D
:1025C0001882DF91CF9108952F923F924F925F92A0
:1025D0006F927F928F929F92AF92BF92CF92DF9233
:1025E000EF92FF920F931F93CF93DF9300D000D011
:1025F000CDB7DEB71C016A017B010E945203811135
:1026000083C1D10115968C91159781117DC11A96C0
:102610008D919D910D90BC91A02D8C159D05AE05C1
:10262000BF0530F4F101248121FD02C06C017D0160
:10263000D10116964D905D906D907C901997F101A7
:102640001682178210861186C114D104E104F104A8
:1026500009F457C100811181D80112968C90912CF8
:10266000A12CB12C072E79E0880C991CAA1CBB1C4C
:102670007A95D1F7702D411451046104710409F465
:102680003FC0B1E04B1A510861087108C701B6019B
:102690006150710981099109A50194010E94E72007
:1026A00029833A834B835C83C301B201A501940162
:1026B0000E94E72089819A81AB81BC8182179307B0
:1026C000A407B507E8F088279927DC01881999093C
:1026D000AA09BB09482259226A227B22D1011696F7
:1026E0004D925D926D927C921997C418D508E608B8
:1026F000F70852964D915D916D917C91559732C03E
:10270000F10146855785608971894115510561053B
:10271000710519F540E050E0BA01C8010E945B095B
:10272000AB01BC01413051056105710529F482E01E
:10273000D10115968C93E8C04F3FBFEF5B076B0745
:102740007B0721F481E0F1018583DEC0D1011E9673
:102750004D935D936D937C935197F101428B538B15
:10276000648B758B411551056105710509F494C0A1
:102770008C149D04AE04BF0408F05CC0D101149613
:102780008C91149781FF0CC08D919C910E945B09E4
:10279000AB01BC01411551056105710541F448C00B
:1027A000F101808191810E949106AB01BC014F3FF4
:1027B000FFEF5F076F077F0729F481E0D1011596CE
:1027C0008C93A2C0423051056105710560F0D101C2
:1027D000ED91FC9182899389A489B589481759079D
:1027E0006A077B0720F082E0F10185838DC0D1016B
:1027F00052964D935D936D937C93559716968D915C
:102800009D910D90BC91A02D880D991DAA1DBB1DF9
:10281000F10186839783A087B187C818D908EA0891
:10282000FB088C149D04AE04BF0408F4A7CF02C0BB
:1028300075016401F10186819781A085B1858C0DB8
:102840009D1DAE1DBF1D86839783A087B187D701CD
:10285000C6019170AA27BB27892B8A2B8B2B01F1EC
:10286000808191810E946306611571058105910542
:1028700029F482E0D10115968C9346C00B2EB9E065
:10288000F694E794D794C794BA95D1F7B02DC60EB5
:10289000D71EE81EF91E07C0C12CD12C760103C03B
:1028A000C12CD12C7601F10186819781A085B1855B
:1028B000AC01BD01517066277727452B462B472B6E
:1028C00069F046895789608D718D4C155D056E05DF
:1028D0007F0521F0C68AD78AE08EF18EF10142850C
:1028E000538564857585481759076A077B0758F42F
:1028F00082879387A487B58784818062848380E000
:1029000003C080E001C080E00F900F900F900F9007
:10291000DF91CF911F910F91FF90EF90DF90CF90BB
:10292000BF90AF909F908F907F906F905F904F90EF
:102930003F902F9008951CBC209884B1897784B96A
:1029400085B1897F85B92F9A08958EBD0DB407FE94
:10295000FDCF8EB508952F9A8FEF0E94A51408958C
:102960002F988FEF0E94A51482E38093D1028FEFFE
:102970000E94A5148F3F49F08091D1028111F7CFB9
:102980000E94AB1480E090E0089581E090E008950B
:102990000F931F93CF93DF93EC018B0184E180931E
:1029A000D2028FEF0E94A5148F3F39F49091D2028A
:1029B0009111F7CF80E090E020C08E3FE1F48FEFDF
:1029C0008EBD0DB407FEFDCF9EB598838EBD0DB4B0
:1029D00007FEFDCF22969EB5FE01319790830250EF
:1029E000110971F78FEF0E94A5148FEF0E94A514B3
:1029F00081E090E002C080E090E0DF91CF911F91F4
:102A00000F910895FF920F931F93CF93DF93C82FD9
:102A1000D42F152F062FF72E882354F440E050E0D2
:102A2000BA0187E30E940215823008F04EC0CF77CA
:102A3000CC3039F10E94AB140E94B014892BF9F00C
:102A40008C2F80640E94A5148F2D0E94A514802FC6
:102A50000E94A514812F0E94A5148D2F0E94A514F9
:102A6000CC2379F12BC08FEF0E94A514CAE08FEF21
:102A70000E94A51488234CF5C150C9F726C08FEFDA
:102A800024C08CE40E94A5148F2D0E94A514802FD1
:102A90000E94A514812F0E94A5148D2F0E94A514B9
:102AA00081E00E94A514CC30F1F2E0CF87E80E94CB
:102AB000A514DCCF81E00E94A514D8CFC830B1F3B3
:102AC000F9CF85E90E94A514D1CFDF91CF911F9155
:102AD0000F91FF9008951F93CF93DF93EC01162F72
:102AE00092E39093D1028FEF0E94A5148F3F31F0B3
:102AF0009091D1029111F7CF80E02AC0812F0E94DE
:102B0000A5141D3F19F19E013E5F88818EBD0DB455
:102B100007FEFDCF2296FE01319780818EBD0DB458
:102B200007FEFDCFC217D30781F78FEF0E94A514D0
:102B30008FEF0E94A5148FEF0E94A514282F2F71EC
:102B400081E090E0253021F080E002C081E090E05B
:102B5000DF91CF911F910895CF92DF92EF92FF9274
:102B60000F931F93CF93DF9300D000D0CDB7DEB784
:102B70008111ADC00E949B148091060181FF03C0AA
:102B800080910601B1C0209A85B1826885B984B16F
:102B9000866884B982E58CBD91E09DBD8CBD1AE04C
:102BA0008FEF0E94A5141150D9F740E050E0BA0110
:102BB00080E00E940215813009F091C084E6809384
:102BC000D2024AEA51E060E070E088E00E9402151B
:102BD000813009F043C0CE0101966C017E0195E081
:102BE000E90EF11C86018FEF0E94A514F801819374
:102BF0008F01EE15FF05B9F78B81813009F06FC0A9
:102C00008C818A3A09F06BC08091D202882349F006
:102C100040E050E060E070E489EA0E940215811112
:102C2000F3CF8091D202882309F459C040E050E0EC
:102C3000BA018AE30E940215811151C0760114E0A5
:102C40001C0D8FEF0E94A514F70181937F011E13C5
:102C5000F8CF898186FD3DC084E03CC040E050E073
:102C6000BA0189EA0E940215823018F001E011E0F1
:102C700002C002E019EA9091D202992341F040E0AB
:102C800050E0BA01812F0E9402158111F4CF80918A
:102C9000D202882321F140E052E060E070E080E160
:102CA0000E94021581111BC00093D0020E94AB1438
:102CB000002341F0809106018E7F8093060180E51C
:102CC0008CBD02C00E949B14809106010DC081E062
:102CD0000BC08CE08093D0020E94AB14EBCF10921B
:102CE000D0020E94AB14EECF0F900F900F900F9078
:102CF000DF91CF911F910F91FF90EF90DF90CF90D8
:102D00000895811103C080910601089581E008951E
:102D1000FF920F931F93CF93DF93EB01811143C079
:102D20000115110509F441C08091060180FD3FC0E5
:102D30008091D00283FD09C0012E19E0220F331FBC
:102D4000441F551F1A95D1F7102D0230110528F494
:102D50000F2EF1E1FF2EF02D04C00F2EF2E1FF2E19
:102D6000F02DBA01A9018F2D0E940215811114C006
:102D700060E072E0CE010E94C814892B21F0DE5F72
:102D800001501109A9F782E1F81206C040E050E0B5
:102D9000BA018CE00E9402150E94AB1481E0012B65
:102DA00039F480E005C084E003C084E001C083E022
:102DB000DF91CF911F910F91FF900895CF92DF92F5
:102DC000EF92FF920F931F93CF93DF93EB01690173
:102DD0007A01811158C00115110509F456C080917E
:102DE000060180FD54C08091060182FD52C0809191
:102DF000D00283FD09C00B2EB9E0CC0CDD1CEE1C0B
:102E0000FF1CBA95D1F7B02D0130110599F4B70127
:102E1000A60188E10E94021581112EC06EEFCE013D
:102E20000E946B1531E020E0892B09F030E0032F80
:102E3000122F22C0867031F0A80160E070E087E9AF
:102E40000E940215B701A60189E10E9402158111B5
:102E500013C06CEFCE010E946B15892B21F0DE5F51
:102E600001501109B1F76DEF80E090E00E946B1501
:102E7000892B11F401E010E00E94AB1481E0012BDA
:102E800049F480E007C084E005C084E003C083E02B
:102E900001C082E0DF91CF911F910F91FF90EF90E1
:102EA000DF90CF900895EF92FF920F931F93CF93EF
:102EB000DF93CDB7DEB760970FB6F894DEBF0FBED5
:102EC000CDBF811190C18091060180FD8EC17A0134
:102ED000062F10E00733110508F06CC1F801EA5A1B
:102EE000FF4F0C9409210E94B01411E0892B09F4C2
:102EF00076C110E074C140E050E0BA0189E00E9460
:102F00000215811159C160E170E0CE0101960E9465
:102F1000C814892B09F452C18981829586958695BA
:102F20008370813031F588858F7390E0A0E0B0E048
:102F3000DC01992788270196A11DB11D298530E064
:102F4000322F22274A85240F311D820F931FA11D86
:102F5000B11D072E7AE0880F991FAA1FBB1F7A9513
:102F6000D1F7702DF70180839183A283B38310E0A2
:102F700036C189858295869586958370288590E0EF
:102F8000F4E02F9F800D911D11249C012F5F3F4F76
:102F90008F81837090E0982F8827990F990F820F67
:102FA000931FA0E0B0E03E813F702B85221F2227B7
:102FB000221F320F2A852370220F230F275004C0AF
:102FC000880F991FAA1FBB1F2A95D2F7F70180838C
:102FD0009183A283B38310E002C11091D00212FF4B
:102FE0002EC040E050E0BA018DE80E940215811128
:102FF000E7C08FEF0E94A51460E170E0CE0101965A
:103000000E94C814892B09F4DDC010E38FEF0E94E1
:10301000A5141150D9F72B8522952F7080E190E0EF
:10302000A0E0B0E004C0880F991FAA1FBB1F2A951B
:10303000D2F7F70180839183A283B383D0C040E0AD
:1030400050E0BA0189E00E9402158111BDC060E123
:1030500070E0CE0101960E94C814892B09F4B6C015
:1030600011FF20C08C85881F8827881F90E001965B
:103070002B852F73820F911D820F911D2E85229516
:10308000269526952370215002C0880F991F2A95F6
:10309000E2F7A0E0B0E0F70180839183A283B383DD
:1030A00010E09DC08C85282F2370829586958770AF
:1030B00090E0F8E02F9F800D911D112401962B8543
:1030C0002C7730E035952795359527952F5F3F4F25
:1030D000829FA001839F500D929F500D1124CA0121
:1030E000A0E0B0E0F70180839183A283B38310E076
:1030F00076C08091D002FA01808310E070C040E079
:1031000050E0BA0189E00E940215811161C060E1BE
:1031100070E0C7010E94C81411E0892B09F45FC058
:1031200010E05DC040E050E0BA018AE00E94021564
:10313000811150C060E170E0C7010E94C81411E025
:10314000892B09F44CC010E04AC040E050E0BA01BD
:103150008AE30E94021581113FC08701F4E0EF0E5F
:10316000F11C8FEF0E94A514F80181938F01EE15D9
:10317000FF05B9F710E033C040E050E0BA018DE838
:103180000E94021581112AC08FEF0E94A51460E4ED
:1031900070E0C7010E94C81411E0892B01F110E012
:1031A0001EC00E949B1480910601816080930601DD
:1031B00010E015C014E013C011E011C011E00FC001
:1031C00011E00DC011E00BC011E009C011E007C013
:1031D00011E005C011E003C011E001C011E00E9440
:1031E000AB14812F03C084E001C083E060960FB66A
:1031F000F894DEBF0FBECDBFDF91CF911F910F912D
:10320000FF90EF9008958091D202882319F08150A9
:103210008093D2028091D102882319F0815080934B
:10322000D10280910601897F80930601089581E093
:103230008093D70080EA8093D80082E189BD09B4E9
:1032400000FEFDCF80E98093D8001092E00010923C
:10325000D6021092D3028CE08093E2007894089515
:103260002FB7F8948091D602811104C02FBF8FEF41
:103270009FEF089583E08093E9008091E80085FD49
:1032800012C082FD04C00BC082FD04C008C0E8EE7D
:10329000F0E09BE69083808185FFF6CF04C02FBFCE
:1032A0008FEF9FEF08958091F1009091E80095FDD8
:1032B00003C09BE69093E8002FBF90E008959FB76E
:1032C000F8948091D602882389F083E08093E90006
:1032D0008091F20081110BC02091E80022FF07C00D
:1032E00025FD05C02BE62093E80001C080E09FBFCC
:1032F0000895CF93DF939091D602992309F44CC09F
:103300009FB7F89424E02093E9002091D40222236F
:1033100049F02091E80025FD03C09FBF8FEF41C019
:103320001092D4023091E400375E2091E80025FD30
:1033300024C09FBF9091E400931781F09091D60232
:10334000992361F1A9EEB0E044E0E8EEF0E0C4EECC
:10335000D0E00DC09FBF9881931305C081E080939A
:10336000D4028FEF1EC09091D6029923C9F09FB767
:10337000F8944C93208125FFEDCF8093F10080914C
:10338000E80085FD03C08AE38093E80085E0809330
:10339000D5029FBF80E005C08FEF03C08FEF01C053
:1033A0008FEFDF91CF9108951F920F920FB60F927A
:1033B00011248F939F93EF93FF93E1EEF0E08081D0
:1033C000108283FF11C01092E90091E09093EB000E
:1033D0001092EC0092E19093ED0098E09093F00051
:1033E0001092D6021092D30282FF13C08091D602AF
:1033F000882379F08091D502882359F081508093F9
:10340000D502811106C084E08093E9008AE38093AD
:10341000E800FF91EF919F918F910F900FBE0F9059
:103420001F9018951F920F920FB60F9211240F93B1
:103430001F932F933F934F935F936F937F938F933C
:103440009F93AF93BF93CF93DF93EF93FF9310922C
:10345000E9008091E80083FF4CC1E1EFF0E060817A
:1034600080812081908130E0392B4081908150E033
:10347000592B7081C08192EF9093E800863009F05B
:1034800058C004C081E28093EB003AC166E08AE153
:1034900091E0FC01A591B4912A173B0711F0079622
:1034A00023C0FC013296A591B4914A175B0711F035
:1034B00007961AC0FC01349645915491FC0136964A
:1034C0002491872F90E09C2B8F3F910519F010F0ED
:1034D0008FEF90E0821708F4282FA8EEB0E070E19B
:1034E0006EEFC1EFD0E003C0615099F6CBCF8C9165
:1034F000982F9570E1F382FD03C1322F213108F03E
:10350000372F332309F4F9C0FA01832F949198835C
:10351000815031968111FACF8FEF830F90E00196A1
:10352000480F591F231B6C932111E1CF3031F9F261
:10353000E7C0853061F48EEF8093E800E8EEF0E0BC
:10354000808180FFFDCF20682093E300D9C08930BF
:1035500009F035C06111CDC02093D6021092D3027C
:103560001092D5028EEF8093E80081E029ED31E0E2
:10357000C9EED0E0ABEEB0E00CEE10E06DEE70E026
:103580008883A9014F5F5F4FF90194919C93992320
:1035900061F0FA014491F8014083F9013296949167
:1035A0002D5F3F4FFB01908301C09A018F5F8530F3
:1035B00039F7EAEEF0E08EE180831082A1C0883016
:1035C00081F4603809F095C0E8EEF0E0808180FF7A
:1035D000FDCF8091D6028093F1008EEF8093E800BA
:1035E0008FC08132B9F4613A09F083C0E8EEF0E0AF
:1035F000808180FFFDCFE7E0F1E02EE031E0A1EF38
:10360000B0E081918C93E217F307D9F78EEF8093A6
:10361000E80076C08032D1F4613209F06AC0E8EE89
:10362000F0E0808182FFFDCFE7E0F1E02EE031E0C5
:10363000A1EFB0E08C918193E217F307D9F7E8EEA0
:10364000F0E08BEF80838EEF80835AC0823271F47A
:10365000613209F04EC02093D302E8EEF0E08081A1
:1036600080FFFDCF8EEF8093E8004AC081111AC021
:10367000E8EEF0E0808180FFFDCF623851F4E9EEA2
:10368000F0E040838091EB0085FB882780F9108271
:1036900001C080E0E1EFF0E0808310828EEF809344
:1036A000E8002EC0982F9D7F913019F5623009F502
:1036B000232BF9F44F779FEF940F9430D0F49EEFC3
:1036C0009093E8004093E900833021F481E28093F5
:1036D000EB0016C089E18093EB0081E090E002C02E
:1036E000880F991F4A95E2F7EAEEF0E08083108296
:1036F00007C081E28093EB0003C06C932111F7CEE9
:10370000FF91EF91DF91CF91BF91AF919F918F91F9
:103710007F916F915F914F913F912F911F910F91E9
:103720000F900FBE0F901F9018958091DA02909124
:10373000DB0201979093DB028093DA02892B31F44C
:103740000E941C0181E08093D702089581E090E0FF
:103750009093D9028093D80208958091DD029091D0
:10376000DE02A091DF02B091E002892B8A2B8B2B25
:1037700031F40E94741D81E08093D702089581E0A6
:1037800090E09093D9028093D8020895E1E6F0E0AA
:1037900080E8808310820895F8940E94C61B8AE610
:1037A00082BF0E94B11D0E945B1D0E94BF1D6DEA79
:1037B0007BE185E99BE10E9445010E9411010E9485
:1037C0000A1E78940E94F21F08950E945A0181E314
:1037D00091E09093DB028093DA021092D90210926A
:1037E000D8020E9408200E94180183E00E94331E24
:1037F00082E00E94251E08950E945A010E942820FE
:103800006093DD027093DE028093DF029093E0020A
:10381000672B682B692B21F481E08093D7020895F0
:103820000E94E90160E072E00E94AC200E94E90180
:1038300060E072E00E94AC208091DD029091DE0297
:10384000A091DF02B091E0029450A109B1098093E8
:10385000DD029093DE02A093DF02B093E0020E94AB
:10386000691D83E00E94331E81E00E94251E089599
:1038700081E00E94331E82E00E94331E83E00E949A
:10388000251E08950E94CC1B0E94381CC0E068943D
:10389000772471F80F2EFDEDAF2EF2E0BF2EF02D44
:1038A0006894552457F866246394CC24C394D12C8F
:1038B0000F2EFAE38F2EF1E09F2EF02D0F2EFFE258
:1038C000EF2EF1E0FF2EF02D03E619E005C0C0E079
:1038D00003C0C62D01C0C72D0E94BC1D882369F0FE
:1038E000F801808191810E942921982FC130B1F186
:1038F000B0F0C23009F466C0EFCF862D0E94171ECB
:10390000482E872D0E94171ED82F83E00E94171E75
:10391000C13031F140F0C23009F456C0DDCF8037FC
:1039200021F0D0E00DC0442051F0FF92EF920E94B0
:1039300067210E94FC1B0F900F90C72DCDCF90E008
:10394000923711F0DD2319F29F928F920E94672126
:103950000E94E51B0F900F90C62DBECF80E001C0E6
:1039600090E0933711F0882321F0D092DB02C092CF
:10397000DA028091D8029091D902892B61F01092DD
:10398000D9021092D8020E94CA0160E072E00E943F
:103990005B20C62DA1CF8091D702882309F499CF4F
:1039A0001092D7020E94CA0160E072E00E945B2080
:1039B0000E94402087E491E00E947D210E94381CF3
:1039C000C0E08ACF80E001C090E0933711F08823F7
:1039D00041F01092DD021092DE021092DF0210928E
:1039E000E0028091D8029091D902892B09F452C04B
:1039F0001092D9021092D8028091DD029091DE02DD
:103A0000A091DF02B091E00281309240A105B105A2
:103A1000D8F00E94E90160E072E00E94AC20809141
:103A2000DD029091DE02A091DF02B091E00292509F
:103A3000A109B1098093DD029093DE02A093DF0219
:103A4000B093E002C72D48CF0E94E901EC01F501D7
:103A5000608171810E94AC208091DD029091DE0234
:103A6000A091DF02B091E0028115F2E09F0740F4DF
:103A7000FE01E80FF91FDE5F5192EC17FD07E1F739
:103A80001092DD021092DE021092DF021092E0022C
:103A9000C72D22CF8091D702882309F41CCF109222
:103AA000D7020E94402087E491E00E947D210E947D
:103AB000381CC0E011CF81E28093C0008FEF80936B
:103AC000D10080E18093D00084E080937200269A38
:103AD000089584E080930E011092BF001092BE0002
:103AE00083E08093C10008951092C10008951F9251
:103AF0000F920FB60F9211242F933F934F935F9322
:103B00006F937F938F939F93AF93BF93EF93FF93A5
:103B100080910E01815080930E01811107C00E9497
:103B200099018093D00084E080930E01FF91EF9182
:103B3000BF91AF919F918F917F916F915F914F91C5
:103B40003F912F910F900FBE0F901F9018950E94DC
:103B50005F198823E1F30E94301908950E947919B2
:103B600008950E941719E3E6F9E08FE091E0918350
:103B700080839383828308950E945F19089580E86B
:103B800087BD82E084BD80936E0085BD579A0895FD
:103B90001F920F920FB60F9211242F933F934F93C2
:103BA0005F936F937F938F939F93AF93BF93EF93A5
:103BB000FF9380911F01815080931F01811105C0E7
:103BC0008CE980931F010E94031980911D0190913F
:103BD0001E01019790931E0180931D01892B49F4CA
:103BE00085E89EE190931E0180931D018BB1805862
:103BF0008BB9FF91EF91BF91AF919F918F917F9181
:103C00006F915F914F913F912F910F900FBE0F9049
:103C10001F90189581B38F7081BB8BB18F708BB95A
:103C200080B38F7080BB8AB1806F8AB908952FB13D
:103C300030E08D5FA90102C0559547958A95E2F75E
:103C4000CA0151E08527817008954BB18D5F21E055
:103C500030E0B90102C0660F771F8A95E2F7CB0109
:103C6000842B8BB908959BB18C5F21E030E002C0BA
:103C7000220F331F8A95E2F781E0232B09F080E0C1
:103C800098239BB90895FB01DC019B012C5F3F4FFA
:103C900081918D93E217F307D9F708958F929F9240
:103CA000AF92BF92FF920F931F93CF93DF934B017D
:103CB0005C01142FF22E6DE471E087E399E00E941D
:103CC000431EC7E3D9E01C821D821E821F8262E56B
:103CD00071E08FE399E00E94431E67E571E083E4A1
:103CE00099E00E94431E80E190E0A0E0B0E0888B64
:103CF000998BAA8BBB8B81E090E09D8B8C8BEF2DF9
:103D0000F0E0FF8BEE8B888E998EAA8EBB8E012FF2
:103D1000069506950695A02FB0E0A50194010E9496
:103D20000F219B01AC01DF010E940F216C8F7D8F61
:103D30008E8F9F8F0E9FC0010F9F900D112499A30E
:103D400088A3412F50E05BA34AA36CE571E08BE5AB
:103D500099E00E94431E18A619A61AA61BA6DF9179
:103D6000CF911F910F91FF90BF90AF909F908F9038
:103D70000895CF93DF9300D0CDB7DEB721E048E0C0
:103D800069E07DE380E090E00E944E1E9E012F5F7F
:103D90003F4F4CE250E067E379E087E199E00E9411
:103DA0008E10882361F01F928F9381E691E09F939C
:103DB0008F930E9467210F900F900F900F90898131
:103DC0009A818C32910561F09F938F9382E891E004
:103DD0009F938F930E9467210F900F900F900F90E9
:103DE00081E08093DC020F900F90DF91CF910895D6
:103DF0001F93CF93DF9300D0CDB7DEB79E012F5F27
:103E00003F4F4CE250E067E379E087E199E00E94A0
:103E1000520F182F882361F01F928F9388EA91E048
:103E20009F938F930E9467210F900F900F900F9098
:103E300089819A818C32910561F09F938F9388ECF0
:103E400091E09F938F930E9467210F900F900F90A6
:103E50000F90812F90E021E030E049815A814C326F
:103E6000510511F420E030E0822B932B892B49F48B
:103E700060915F0970916009809161099091620978
:103E800003C060E070E0CB010F900F90DF91CF9105
:103E90001F910895CF93DF93CDB7DEB72A970FB662
:103EA000F894DEBF0FBECDBF8091DD029091DE029F
:103EB000A091DF02B091E0028B839C83AD83BE832F
:103EC0008496A11DB11D8F839887A987BA8744E086
:103ED00050E060E070E087E199E00E94E4128823FE
:103EE00061F01F928F938EEE91E09F938F930E94CB
:103EF00067210F900F900F900F909E012F5F3F4F03
:103F000044E050E0BE01695F7F4F87E199E00E9485
:103F10008E10882361F01F928F9381E691E09F932A
:103F20008F930E9467210F900F900F900F908981BF
:103F30009A818430910561F09F938F938FE092E096
:103F40009F938F930E9467210F900F900F900F9077
:103F500048E250E060E070E087E199E00E94E412FE
:103F6000882361F01F928F938EEE91E09F938F9341
:103F70000E9467210F900F900F900F909E012F5F6E
:103F80003F4F44E050E0BE016D5F7F4F87E199E015
:103F90000E948E10882361F01F928F9381E691E03A
:103FA0009F938F930E9467210F900F900F900F9017
:103FB00089819A818430910561F09F938F938FE07E
:103FC00092E09F938F930E9467210F900F900F9024
:103FD0000F902A960FB6F894DEBF0FBECDBFDF91CB
:103FE000CF91089541E064E372E089EE96E00E948B
:103FF000AD0B882361F01F928F9386E392E09F932D
:104000008F930E9467210F900F900F900F9008954B
:104010004BE067E572E087E199E00E94000C88239D
:1040200061F01F928F9382E692E09F938F930E949C
:1040300067210F900F900F900F900E94B91E109261
:10404000DD021092DE021092DF021092E00208956B
:1040500041E067E572E087E199E00E94000C882367
:1040600061F01F928F9382E692E09F938F930E945C
:1040700067210F900F900F900F900E94F81E0895E7
:104080008091DC02882321F01092DC020E944A1FFA
:1040900087E199E00E94D312882361F01F928F93E9
:1040A00082E892E09F938F930E9467210F900F9078
:1040B0000F900F9008950F931F93CF93DF9300D02D
:1040C000CDB7DEB78B019E012F5F3F4FAB01BC0127
:1040D00087E199E00E948E10882361F01F928F93F0
:1040E00081E691E09F938F930E9467210F900F903C
:1040F0000F900F9089819A818017910781F01F930B
:104100000F939F938F9383EA92E09F938F930E94E4
:1041100067210F900F900F900F900F900F9080914C
:10412000DD029091DE02A091DF02B091E0022981D0
:104130003A81820F931FA11DB11D8093DD029093E0
:10414000DE02A093DF02B093E0020F900F90DF91A8
:10415000CF911F910F9108950F931F93CF93DF93EA
:1041600000D0CDB7DEB78B019E012F5F3F4FAB0173
:10417000BC0187E199E00E94520F882361F01F92F1
:104180008F9381E691E09F938F930E9467210F9018
:104190000F900F900F9089819A818017910781F07D
:1041A0001F930F939F938F9383EA92E09F938F9334
:1041B0000E9467210F900F900F900F900F900F901B
:1041C0000F900F90DF91CF911F910F910895A1E271
:1041D0001A2EAA1BBB1BFD010DC0AA1FBB1FEE1F81
:1041E000FF1FA217B307E407F50720F0A21BB30BCC
:1041F000E40BF50B661F771F881F991F1A9469F748
:1042000060957095809590959B01AC01BD01CF01A3
:104210000895EE0FFF1F0590F491E02D09940E9480
:104220001A21A59F900DB49F900DA49F800D911D04
:1042300011240895A29FB001B39FC001A39F700DE8
:10424000811D1124911DB29F700D811D1124911D9E
:104250000895CF93DF93EC012B8120FF33C026FF1D
:104260000AC02F7B2B838E819F8101969F838E8333
:104270008A8190E029C022FF0FC0E881F981808106
:10428000082E000C990B009719F420622B831AC09A
:104290003196F983E8830EC0EA85FB85099597FF7F
:1042A00009C02B81019611F080E201C080E1822BD0
:1042B0008B8308C02E813F812F5F3F4F3F832E832A
:1042C000992702C08FEF9FEFDF91CF910895A0E073
:1042D000B0E0EDE6F1E20C943B24AE014B5F5F4FA2
:1042E000FA0161917191AF01809165099091660920
:1042F0000E94AD21E2E00C9457240F931F93CF93BB
:10430000DF93E0916509F0916609238121FF1BC0CD
:104310008C01D0E0C0E0F80181918F0160916509C6
:1043200070916609DB011896ED91FC91199788232D
:1043300031F00995892B79F3DFEFCFEFECCF8AE0ED
:104340000995892B19F08FEF9FEF02C08D2F9C2FBD
:10435000DF91CF911F910F910895ACE0B0E0E3EBB6
:10436000F1E20C942B247C016B018A01FC01178281
:104370001682838181FFBDC1CE0101964C01F701F8
:104380009381F60193FD859193FF81916F018823BD
:1043900009F4ABC1853239F493FD859193FF819186
:1043A0006F01853229F4B70190E00E949523E7CF91
:1043B000512C312C20E02032A0F48B3269F030F403
:1043C000803259F0833269F420612CC08D3239F08B
:1043D000803339F4216026C02260246023C0286025
:1043E00021C027FD27C030ED380F3A3078F426FF82
:1043F00006C0FAE05F9E300D1124532E13C08AE0F0
:10440000389E300D1124332E20620CC08E3221F4E0
:1044100026FD6BC1206406C08C3611F4206802C0F2
:10442000883641F4F60193FD859193FF81916F01E8
:104430008111C1CF982F9F7D9554933028F40C5F44
:104440001F4FFFE3F9830DC0833631F0833771F0DE
:10445000833509F05BC022C0F801808189830E5F3B
:104460001F4F44244394512C540115C03801F2E0ED
:104470006F0E711CF801A080B18026FF03C0652D6E
:1044800070E002C06FEF7FEFC5012C870E948A2386
:104490002C0183012C852F77222E17C03801F2E0E2
:1044A0006F0E711CF801A080B18026FF03C0652D3E
:1044B00070E002C06FEF7FEFC5012C870E947F2361
:1044C0002C012C852068222E830123FC1BC0832D08
:1044D00090E048165906B0F4B70180E290E00E94DF
:1044E00095233A94F4CFF50127FC859127FE81911D
:1044F0005F01B70190E00E94952331103A94F1E0FA
:104500004F1A51084114510471F7E5C0843611F077
:10451000893639F5F80127FF07C0608171818281F2
:1045200093810C5F1F4F08C060817181072E000CC2
:10453000880B990B0E5F1F4F2F76722E97FF09C0C5
:1045400090958095709561957F4F8F4F9F4F206814
:10455000722E2AE030E0A4010E94CD23A82EA818D4
:1045600044C0853729F42F7EB22E2AE030E025C0E2
:10457000F22FF97FBF2E8F36C1F018F4883579F00D
:10458000B4C0803719F0883721F0AFC02F2F2061D9
:10459000B22EB4FE0DC08B2D8460B82E09C024FF4E
:1045A0000AC09F2F9660B92E06C028E030E005C0F3
:1045B00020E130E002C020E132E0F801B7FE07C0A0
:1045C00060817181828193810C5F1F4F06C0608181
:1045D000718180E090E00E5F1F4FA4010E94CD2307
:1045E000A82EA818FB2DFF777F2E76FE0BC0372D47
:1045F0003E7FA51450F474FE0AC072FC08C0372D2B
:104600003E7E05C0BA2C372D03C0BA2C01C0B52C94
:1046100034FF0DC0FE01EA0DF11D8081803311F4DD
:10462000397E09C032FF06C0B394B39404C0832F0F
:10463000867809F0B39433FD13C030FF06C05A2CBE
:10464000B31418F4530C5B18B32CB31468F4B7010B
:1046500080E290E03C870E949523B3943C85F5CF9F
:10466000B31410F43B1801C0312C34FF12C0B70151
:1046700080E390E03C870E9495233C8532FF17C081
:1046800031FD03C088E790E002C088E590E0B70103
:104690000CC0832F867859F031FF02C08BE201C035
:1046A00080E237FD8DE2B70190E00E949523A514CA
:1046B00038F4B70180E390E00E9495235A94F7CF35
:1046C000AA94F401EA0DF11D8081B70190E00E94E7
:1046D0009523A110F5CF332009F451CEB70180E224
:1046E00090E00E9495233A94F6CFF7018681978156
:1046F00002C08FEF9FEF2C96E2E10C944724FC015F
:104700000590615070400110D8F7809590958E0FFC
:104710009F1F0895FC016150704001900110D8F76F
:10472000809590958E0F9F1F08950F931F93CF93A1
:10473000DF93FB01238121FD03C08FEF9FEF28C092
:1047400022FF16C0468157812481358142175307C5
:1047500044F4A081B1819D012F5F3F4F31832083BD
:104760008C93268137812F5F3F4F3783268310C07C
:10477000EB01092F182F0084F185E02D0995892B75
:10478000E1F68E819F8101969F838E83812F902FEA
:10479000DF91CF911F910F910895FA01AA27283038
:1047A00051F1203181F1E8946F936E7F6E5F7F4FFE
:1047B0008F4F9F4FAF4FB1E03ED0B4E03CD0670F7A
:1047C000781F891F9A1FA11D680F791F8A1F911DCD
:1047D000A11D6A0F711D811D911DA11D20D009F41D
:1047E00068943F912AE0269F11243019305D31935F
:1047F000DEF6CF010895462F4770405D4193B3E048
:104800000FD0C9F7F6CF462F4F70405D4A3318F0EE
:10481000495D31FD4052419302D0A9F7EACFB4E09F
:10482000A6959795879577956795BA95C9F7009757
:104830006105710508959B01AC010A2E06945795F8
:10484000479537952795BA95C9F7620F731F841F4F
:10485000951FA01D08952F923F924F925F926F92E5
:104860007F928F929F92AF92BF92CF92DF92EF9200
:10487000FF920F931F93CF93DF93CDB7DEB7CA1B81
:10488000DB0B0FB6F894DEBF0FBECDBF09942A88AC
:10489000398848885F846E847D848C849B84AA8454
:1048A000B984C884DF80EE80FD800C811B81AA81E1
:1048B000B981CE0FD11D0FB6F894DEBF0FBECDBFAC
:0848C000ED010895F894FFCF0B
:1048C800E706E704E7020100E10000000008040031
:1048D80000000300000000AE1DA71D0000851E9CFF
:1048E800222A2B2C3A3B3C3D3E3F5B5D7C7F0050AF
:1048F8006C6179696E672E2E2E005265636F726443
:10490800696E672E2E2E00444F4E452100524946AF
:1049180046005741564500666D7420006461746115
:1049280000665F77726974652072657475726E656A
:1049380064206572726F7220636F64653A20256423
:104948000A00665F77726974652077726F746520F4
:104958002564206F6620343420627974657320746E
:104968006F2066696C652E00665F726561642072EF
:10497800657475726E6564206572726F7220636FFC
:1049880064653A2025640A00665F72656164207276
:10499800656164202564206F662034342062797450
:1049A80065732066726F6D2066696C652E00665FA0
:1049B8006C7365656B2072657475726E65642065CD
:1049C80072726F7220636F64653A2025640A00660C
:1049D8005F77726974652077726F7465202564202B
:1049E8006F66203420627974657320746F2066695D
:1049F8006C652E002F00665F6D6F756E7420726592
:104A08007475726E6564206572726F7220636F646C
:104A1800653A2025640A004547423234302E574112
:104A28005600665F6F70656E2072657475726E658C
:104A380064206572726F7220636F64653A20256422
:104A48000A00665F636C6F73652072657475726EB9
:104A58006564206572726F7220636F64653A202501
:104A6800640A00665F77726974652077726F74658F
:104A7800202564206F662025642062797465732080
:0A4A8800746F2066696C652E000053
:00000001FF
