:100000000C94F2000C940F010C940F010C940F014E
:100010000C940F010C940F010C940F010C940F0120
:100020000C940F010C940F010C94BB190C94F9194A
:100030000C940F010C940F010C940F010C940F0100
:100040000C940F010C940F010C940F010C940F01F0
:100050000C940F010C948F1D0C940F010C940F0144
:100060000C940F010C940F010C940F010C940F01D0
:100070000C940F010C941F010C940F010C940F01B0
:100080000C940F010C940F010C940F010C940F01B0
:100090000C940F010C940F010C940F010C940F01A0
:1000A0000C940F010C948B1C0C940F0156175E17C7
:1000B000C118D017C118C118C118B818C118C11873
:1000C000C118C118C118C118C118C118C118C11868
:1000D000C118C118C118C118C118C118C118C11858
:1000E000C118C118C118C118C118C118C118C11848
:1000F000C118C118C118C118C118C118C118C11838
:10010000C118C118C118C118C118C118C118C11827
:10011000611867187A188D18A31800010000C7012C
:10012000120002000084014300030000800104016A
:100130000309046A011402030904520116030309A6
:100140000444010C0C03310032003300340035004C
:1001500000001603550053004200200053006500C4
:100160007200690061006C000000140359006F0008
:100170007500720020004E0061006D0065000000F7
:100180000403090409024300020100C0320904000B
:1001900000010202010005240010010524010101F3
:1001A000042402060524060001070582031000400E
:1001B00009040100020A00000007050302400000D4
:1001C000070584024000001201000202000010C076
:1001D000167A040001010203010001C112018036F8
:1001E0000181360011241FBECFEFDAE0DEBFCDBFA4
:1001F00013E0A0E0B1E0E2E8F7E402C005900D9260
:10020000AC30B107D9F729E0ACE0B3E001C01D92F2
:10021000A93BB207E1F70E94DE1C0C94BF230C94AB
:10022000000080E680937C0083E080937B0008954B
:100230008EEA80937A00089510927A0008951F92B2
:100240000F920FB60F9211242F933F934F935F930A
:100250006F937F938F939F93AF93BF93EF93FF938E
:10026000809179000E946701FF91EF91BF91AF915A
:100270009F918F917F916F915F914F913F912F91BE
:100280000F900FBE0F901F90189520910401309190
:1002900005013093330320933203309335072093C5
:1002A000340790932F0380932E0370933103609350
:1002B00030030895809104019091050190933303D8
:1002C0008093320390933507809334070895E0912B
:1002D0003203F09133039F012F5F3F4F309333037D
:1002E00020933203808380913203909133032091D5
:1002F0000201309103018217930731F4E0912E033C
:10030000F0912F030995089520910001309101018A
:100310008217930769F480910401909105019093ED
:10032000330380933203E0912E03F0912F0309955C
:100330000895CF93E0913407F0913507CF010196EE
:100340009093350780933407C0812091020130914A
:1003500003018217930731F4E0913003F0913103E8
:10036000099514C020910001309101018217930773
:1003700069F4809104019091050190933507809371
:100380003407E0913003F091310309958C2FCF9120
:1003900008958091040190910501209134073091D6
:1003A00035078217930758F4309102012091030119
:1003B0009093350780933407832F922F08952091CF
:1003C00002013091030130933507209334070895DB
:1003D0008091040190910501209132033091330303
:1003E0008217930758F430910201209103019093F2
:1003F000330380933203832F922F089520910201BB
:100400003091030130933303209332030895CF9347
:10041000DF9342305105C0F0DB01FC019A01CD9120
:10042000DD91C193D1932250310922303105B8F7C3
:100430009A01225031092E7F2E5F3F4F820F931F6A
:10044000620F731F417055274115510549F0DB01BB
:10045000FC01480F591F9D919193E417F507D9F7B7
:10046000DF91CF910895CF93DF93EC01A881B981FB
:10047000109711F14C91413258F04A3349F1FD0186
:1004800031969F019191913228F09A33D1F704C0AF
:10049000942F9D019A3399F450E0CA01C097AD01A1
:1004A0004F5F5F4F2417350769F48230910568F478
:1004B0001296B983A8830EC08FEF9FEF0BC080E028
:1004C00090E008C08FEF9FEF05C08FEF9FEF02C055
:1004D0009D01E2CFDF91CF9108958F929F92AF92CD
:1004E000BF92CF92DF92EF92FF920F931F93CF9321
:1004F000DF93FC012481222309F446C0EC01C2A44D
:10050000D3A4E4A4F5A45C01FEE2AF0EB11C01E0AB
:1005100010E0A7019601B50189810E94C1168111E1
:1005200035C01C828E8D9F8DA8A1B9A1B701A601EF
:10053000481B590B6A0B7B0B8E899F89A88DB98D3F
:10054000481759076A077B0718F58B80912C82E0C2
:1005500088169104F8F08E899F89A88DB98DC80EF0
:10056000D91EEA1EFB1E01E010E0A7019601B501AD
:1005700089810E94C116E1E08E1A9108F1E08F1680
:10058000910449F780E007C080E005C081E003C026
:1005900080E001C080E0DF91CF911F910F91FF902B
:1005A000EF90DF90CF90BF90AF909F908F90089585
:1005B0008F929F92AF92BF92FF920F931F93CF9310
:1005C000DF93EC014A015B018AA59BA5ACA5BDA503
:1005D00084179507A607B707E9F0CE010E946D02C0
:1005E000F82E811118C001E010E0A5019401BE01B0
:1005F000625D7F4F89810E946B16882331F0FF2452
:10060000F39488248A94982C54018AA69BA6ACA6BD
:10061000BDA601C0F12C8F2DDF91CF911F910F91BD
:10062000FF90BF90AF909F908F900895CF93DF93EE
:10063000EC011C828FEF9FEFDC018AA79BA7ACA780
:10064000BDA7CE010E94D802811123C0FE01E45D46
:10065000FD4F8081918185359A4AE9F4E85CF1404B
:1006600080819181A281B381BB2786349144A445C6
:10067000B10599F0C058DF4F488159816A817B816B
:10068000772781E0463451446445710539F480E0B0
:1006900005C083E003C082E001C080E0DF91CF911C
:1006A00008950097C9F0DC01ED91FC911197309706
:1006B000A9F020812223A1F02681378112968D9105
:1006C0009C9113972817390769F481810E94641659
:1006D00080FF0AC089E0089589E0089589E00895BF
:1006E00089E0089589E0089580E008952F923F926F
:1006F0004F925F926F927F928F929F92AF92BF9232
:10070000CF92DF92EF92FF920F931F93CF93DF93DD
:10071000CDB7DEB76D970FB6F894DEBF0FBECDBF75
:100720006C01CB01B42ED6011D921C920E943302A3
:100730007C0199230CF404C2FC01EE0FFF1FE25F61
:10074000FC4F008111810115110509F4FBC1F6016F
:1007500011830083D8018C91882369F011968C91C4
:100760000E94641680FD07C0BB2009F4EDC182FF22
:10077000EDC18AE08EC2F8011082E1828E2D0E94C6
:10078000911580FDE5C1BB2009F402C282FDE2C1E2
:10079000FFC18081882329F044805580668077805E
:1007A00004C04E2C5F2C672E762ED9014D925D929F
:1007B0006D927D929D0170964E175F0751F74E0125
:1007C000B1E18B0E911C6894772471F8F501C1900A
:1007D000D190E190F1905F01C114D104E104F104E2
:1007E00041F0B701A601C8010E941603811102C0A1
:1007F0000DC0872DA814B90449F703C0C12CD12C12
:100800007601833009F4A8C18111A8C1D801D99615
:100810008D919C91DA978115924009F0A1C1F80160
:10082000EC5BFF4F40805180612C712C41145104CE
:100830006104710429F43E96408051806280738087
:10084000F801468A578A608E718EA6ADA3838FEF1A
:100850008A0F823008F086C1F3ADF98B2F2FF80193
:100860002283222309F480C1822F90E09C01215031
:10087000310982239323892B09F078C1FF962080C8
:100880003180F80131862086C1018F709927892B2C
:1008900009F06EC1EF5BFF4F80809180A12CB12CDD
:1008A00081149104A104B10429F43D9680809180C3
:1008B000A280B380F80104ACF5ADE02D309709F4C7
:1008C00059C1B0E0A30192010E9497206A8F7B8FEB
:1008D0008C8F9D8F9F0140E050E02E8B3F8B488F87
:1008E000598FC101929582958F7089279F708927B2
:1008F000280F391F411D511DDA01C9012A8D3B8D79
:100900004C8D5D8D280F391F4A1F5B1F2A8B3B8B37
:100910004C8B5D8B82169306A406B50608F42CC199
:10092000C501B401621B730B840B950BE9892E2F53
:1009300030E040E050E00E946F20DA01C90121154B
:1009400031054105510509F419C1263FFFE03F0774
:100950004105510518F0E2E0E98B02C0F1E0F98BA6
:10096000863F9F4FA105B10508F02AC149015A01F0
:1009700082E0880E911CA11CB11CD80152968D9268
:100980009D92AD92BC925597F801C28ED38EE48EA3
:10099000F58E8E899F89A88DB98D8C0D9D1DAE1DFC
:1009A000BF1D868F978FA0A3B1A34A895B896C89ED
:1009B0007D894C0D5D1D6E1D7F1D46A357A360A74D
:1009C00071A7F989F33069F5232809F0D9C0F80136
:1009D000E65AFF4F80819181A281B381F80182A301
:1009E00093A3A4A3B5A3880C991CAA1CBB1C880CB8
:1009F000991CAA1CBB1CFFEF8F0EF1E09F1EA11CCF
:100A0000B11C072E79E0B694A794979487947A95B1
:100A1000D1F7702D481459046A047B0408F4B2C05D
:100A2000FBC0232809F4B0C02A8D3B8D4C8D5D8D11
:100A3000820F931FA41FB51FF80182A393A3A4A341
:100A4000B5A3F989F23029F4880C991CAA1CBB1CA7
:100A50000AC1A3E0B0E0A50194010E949720DC0147
:100A6000CB01B695A7959795879521E08222992489
:100A7000AA24BB24880E991EAA1EBB1EF4C0B7016F
:100A8000A6014F5F5F4F6F4F7F4FC8010E94D80292
:100A9000811139C0D80115961C92F801E45DFD4F13
:100AA0008081918185359A4A89F5F80186A597A5B7
:100AB000A0A9B1A982359245A146B14451F5F801EA
:100AC000EE5EFD4F80819181A281B3818237924792
:100AD000A144B14609F5349680819181A281B38108
:100AE000F80186879787A08BB18BE65EFD4F8081EA
:100AF0009181A281B381F80182879387A487B5870A
:100B0000F3E0F98B0BC0E3E0E98B08C0F3E0F98B6D
:100B100005C0E3E0E98B02C0F3E0F98BE989D80175
:100B2000EC9380910C0390910D03019690930D032B
:100B300080930C0317969C938E93169780E0A9C020
:100B40008BE0A7C08CE0A5C080E0A3C080E0A1C07E
:100B500083E09FC08AE09DC081E09BC08DE099C08A
:100B60008DE097C08DE095C08DE093C08DE091C081
:100B70008DE08FC08DE08DC08DE08BC08DE089C091
:100B80008DE087C08DE085C08DE083C08DE081C0A1
:100B900040E050E0BA01C8010E941603813009F01C
:100BA0002DCEF801E051FE4F9E012F5F3F4F5901BE
:100BB000A801405D5D4FE12CF12C70E060E0E9CDD3
:100BC00049015A0162E0860E911CA11CB11CD8019A
:100BD00052968D929D92AD92BC925597F801C28E1D
:100BE000D38EE48EF58E8E899F89A88DB98D8C0D5C
:100BF0009D1DAE1DBF1D868F978FA0A3B1A38A89AF
:100C00009B89AC89BD898C0D9D1DAE1DBF1D86A322
:100C100097A3A0A7B1A7D8CE8FEF9FEFDC01F80173
:100C200086879787A08BB18B82879387A487B587A8
:100C300080E88583E25AFF4F80819181019709F412
:100C40001ECFF3E0F98B6ACF8FEF9FEFDC01F80145
:100C500086879787A08BB18B82879387A487B58778
:100C600080E885835BCFFFEF8F0EF1E09F1EA11C14
:100C7000B11C072E79E0B694A794979487947A953F
:100C8000D1F7702D481459046A047B0408F47ECF10
:100C9000DBCF6D960FB6F894DEBF0FBECDBFDF91F0
:100CA000CF911F910F91FF90EF90DF90CF90BF9069
:100CB000AF909F908F907F906F905F904F903F90FC
:100CC0002F9008950F931F93FC019A01AB012250BE
:100CD00031094109510982899389A489B58902970B
:100CE000A109B109281739074A075B0768F4A281EF
:100CF000B0E00E94972006A117A120A531A5600FA2
:100D0000711F821F931F03C060E070E0CB011F9131
:100D10000F910895AF92BF92CF92DF92EF92FF9220
:100D20000F931F93CF93DF934230510561057105F7
:100D300008F4AEC0FC01C288D388E488F5884C155D
:100D40005D056E057F0508F0A8C06A017B01EC0116
:100D50008081823009F44DC0833009F46CC0813049
:100D600009F0A0C08A0116950795040F151FC80148
:100D7000892F99278695468D578D60A171A1480FBF
:100D8000591F611D711DCF010E94D80281118FC0B2
:100D90005801FFEFAF1ABF0A1170FE01E00FF11FFB
:100DA00016A5C501892F992786954E8D5F8D68A15F
:100DB00079A1480F591F611D711DCE010E94D802F3
:100DC000811179C081E0B822CA0DDB1D8EA5612F8B
:100DD00070E0782BC0FE09C0729562956F7067272E
:100DE0007F70672780E090E071C07F7080E090E0C6
:100DF0006DC0452F562F672F7727868D978DA0A121
:100E0000B1A1480F591F6A1F7B1FCF010E94D80252
:100E1000811155C0B701A601440F551F661F771FEA
:100E20004E7F517066277727C40FD51F6EA57FA50B
:100E300080E090E04BC0868D978DA0A1B1A1689411
:100E400016F876956795579547951694D1F7480FFC
:100E5000591F6A1F7B1FCF010E94D802811133C026
:100E6000B701A601440F551F661F771F440F551F7A
:100E7000661F771F4C7F517066277727C40FD51FD9
:100E80008EA59FA5A8A9B9A9BC01CD019F701EC0C0
:100E900061E070E080E090E019C061E070E080E027
:100EA00090E014C061E070E080E090E00FC06FEF70
:100EB0007FEFCB010BC06FEF7FEFCB0107C06FEF70
:100EC0007FEFCB0103C06FEF7FEFCB01DF91CF91BD
:100ED0001F910F91FF90EF90DF90CF90BF90AF9058
:100EE0000895AF92BF92CF92DF92EF92FF920F934D
:100EF0001F93CF93DF93EC018B017D836C83CE80B6
:100F0000DF80E884F98481E0C816D104E104F104AB
:100F100009F48BC0E881F98182899389A489B58914
:100F2000C816D906EA06FB0608F081C0C114D10430
:100F3000E104F104C1F48081833041F482A193A1E2
:100F4000A4A1B5A10097A105B10559F480859185AB
:100F50000817190708F06DC062A173A184A195A1BB
:100F600037C06C017D01A28080E1A89E5001112450
:100F70000A151B0538F1B701A601888199810E94E5
:100F80008A066B017C018FEFC816D806E806F806C2
:100F900009F451C082E0C816D104E104F10408F458
:100FA0004CC0E881F98182899389A489B589C816E2
:100FB000D906EA06FB0608F042C00A191B090A1501
:100FC0001B05C8F6B701A601888199810E946206B7
:100FD000CA86DB86EC86FD86611571058105910563
:100FE00081F19801329522952F7023273F70232796
:100FF000DC01CB01820F931FA11DB11D8E879F873E
:10100000A88BB98B888199818E960F701127000F5C
:10101000111F02951295107F1027007F1027080FCF
:10102000191F1B8B0A8B80E00DC082E00BC082E091
:1010300009C082E007C081E005C082E003C082E011
:1010400001C082E0DF91CF911F910F91FF90EF904F
:10105000DF90CF90BF90AF9008954F925F926F92C4
:101060007F929F92AF92BF92CF92DF92EF92FF92C8
:101070000F931F93CF93DF934230510561057105A4
:1010800008F4DBC0FC01C288D388E488F5884C15DD
:101090005D056E057F0508F0D4C0680179012A015D
:1010A0003B01EC018081823009F465C0833009F492
:1010B00088C0813009F0C9C08A0116950795040FD0
:1010C000151FC801892F99278695468D578D60A1D8
:1010D00071A1480F591F611D711DCF010E94D802D7
:1010E000982E8111D1C05801FFEFAF1ABF0A1170BD
:1010F00040FE21C0FE01E00FF11F86A5282F2F70B2
:1011000030E1C39EC0011124822B86A781E08C832D
:101110004E8D5F8D68A179A1C501892F992786958C
:10112000480F591F611D711DCE010E94D8028823EE
:1011300009F493C08EC0FE01E00FF11FC6A681E046
:101140008C834E8D5F8D68A179A1C501892F992768
:101150008695480F591F611D711DCE010E94D8024E
:10116000882309F485C077C0FE01EA0DFB1DC6A6E1
:1011700081E08C8389C0452F562F672F7727868D76
:10118000978DA0A1B1A1480F591F6A1F7B1FCF01E6
:101190000E94D802982E811177C0B301A201440F9A
:1011A000551F661F771F4E7F517066277727425D58
:1011B0005F4FFE01E40FF51FD182C08281E08C8376
:1011C00063C0868D978DA0A1B1A1689416F876951D
:1011D0006795579547951694D1F7480F591F6A1F81
:1011E0007B1FCF010E94D802982E81114DC0B30100
:1011F000A201440F551F661F771F440F551F661F1E
:10120000771F4C7F517066277727425D5F4FFE0145
:10121000E40FF51F008111812281338100271127FE
:101220002227307FC02AD12AE22AF32AC082D18223
:10123000E282F38281E08C8327C06894992491F83C
:1012400023C06894992491F81FC06894992491F858
:101250001BC0982E19C0982E17C081E0B822689440
:1012600013F8F694E794D794C7941694D1F77CCFEB
:10127000E1E0BE22FE01EA0DFB1D96A5907F8D2DBB
:101280008F70C92EC82A70CF892DDF91CF911F9101
:101290000F91FF90EF90DF90CF90BF90AF909F9015
:1012A0007F906F905F904F9008954F925F926F92F2
:1012B0007F928F929F92AF92BF92CF92DF92EF92E6
:1012C000FF920F931F93CF93DF93EC012A013B0111
:1012D0004115510561057105B9F48A849B84AC847C
:1012E000BD8481149104A104B10461F18A899B89B0
:1012F000AC89BD8988169906AA06BB0638F1812CEF
:10130000912C5401839422C00E948A066B017C01B7
:10131000623071058105910508F48EC08FEFC81603
:10132000D806E806F80609F48CC08A899B89AC893E
:10133000BD89C816D906EA06FB0608F487C0530122
:10134000420104C0812C912C5401839475016401E5
:101350002FEFC21AD20AE20AF20A8A899B89AC8963
:10136000BD89C816D906EA06FB0660F082E0881639
:101370009104A104B10408F46EC0C12CD12C7601F3
:101380006894C1F8B701A601CE010E948A066115D2
:1013900071058105910599F06F3F2FEF7207820764
:1013A000920709F45DC0613071058105910509F46A
:1013B0005CC0C814D904EA04FB0451F65BC00FEF0B
:1013C0001FEF2FEF3FE0B701A601CE010E942D08CD
:1013D00081112BC0411451046104710449F097013B
:1013E0008601B301A201CE010E942D0881111DC00A
:1013F000CA86DB86EC86FD868E859F85A889B9899D
:101400008F3F2FEF9207A207B207C9F10197A109F9
:10141000B1098E879F87A88BB98B8D8181608D8361
:101420006C2D7D2D8E2D9F2D33C0813069F161E0B3
:1014300070E080E090E02CC061E070E080E090E03F
:1014400027C06FEF7FEF8FEF9FEF22C06C2D7D2DB8
:101450008E2D9F2D1DC060E070E080E090E018C0F0
:101460006FEF7FEF8FEF9FEF13C061E070E080E0E0
:1014700090E00EC060E070E080E090E009C06C2D6C
:101480007D2D8E2D9F2D04C06FEF7FEF8FEF9FEF8F
:10149000DF91CF911F910F91FF90EF90DF90CF9050
:1014A000BF90AF909F908F907F906F905F904F9084
:1014B00008957F928F929F92AF92BF92CF92DF92C8
:1014C000EF92FF920F931F93CF93DF93DC0114965B
:1014D000CD91DC911597219609F401C11E968D904E
:1014E0009D90AD90BC90519781149104A104B104DA
:1014F00009F4F7C07B018C016E01BFE0CB22DD2433
:10150000C114D10409F0D5C0EFEF8E1A9E0AAE0ABD
:10151000BE0ADC011E968D929D92AD92BC925197AF
:101520001A964D915D916D917C911D9741155105D4
:101530006105710549F4ED91FC9180859185C8178D
:10154000D90708F0D0C0B5C0DC01ED91FC91228133
:1015500030E021503109CE01929582958F70892714
:101560009F70892728233923232B09F0A2C0CF019C
:101570000E948A064B015C0162307105810591056C
:1015800008F4B3C06F3F7F4F8F4F9F4F09F4AFC038
:10159000D801ED91FC9182899389A489B589881637
:1015A0009906AA06BB0608F472C0EF2809F4A1C088
:1015B000D8011A964D915D916D917C911D97CF0147
:1015C0000E9455094B015C0161157105810591056A
:1015D00009F491C0613071058105910509F48DC050
:1015E0006F3F7F4F8F4F9F4F09F489C0D8018D9176
:1015F0009C910E946D02811184C0F80180819181CB
:10160000FC01BE96825D9D4F1192E817F907E1F744
:10161000D801ED90FC90B501A401C7010E946206BB
:10162000F70162A773A784A795A7E12CF12C772473
:10163000739419C07482D8018D919C910E946D029F
:10164000811161C0D801ED91FC9182A593A5A4A55B
:10165000B5A50196A11DB11D82A793A7A4A7B5A703
:10166000BFEFEB1AFB0AD801ED91FC91828190E06B
:10167000E816F906F8F282A593A5A4A5B5A58E19DA
:101680009F09A109B10982A793A7A4A7B5A7F8014B
:1016900082869386A486B586B501A4018081918156
:1016A0000E946206D8011E966D937D938D939C9344
:1016B0005197F801D583C483808191818E96CC0C9B
:1016C000DD1CCC0CDD1CCC0CDD1CCC0CDD1CCC0CD6
:1016D000DD1CC80ED91ED38AC28A80E015C084E002
:1016E00013C084E011C084E00FC082E00DC081E02F
:1016F0000BC084E009C087E007C082E005C081E03C
:1017000003C081E001C081E0DF91CF911F910F9173
:10171000FF90EF90DF90CF90BF90AF909F908F9011
:101720007F9008951F93CF93DF9300D000D000D017
:10173000CDB7DEB79C838B837E836D83142F7A8332
:101740006983CE0101960E943302992334F1FC0192
:10175000EE0FFF1FE25FFC4F0190F081E02D30970C
:1017600009F01082EB81FC813097E9F010822B8127
:101770003C81880F991FFC01E25FFC4F318320837D
:10178000232B69F0113069F440E0BE016B5F7F4F9D
:10179000CE0103960E9476030EC08BE00CC080E061
:1017A0000AC080E008C0880F991FFC01E25FFC4F6F
:1017B0001182108280E026960FB6F894DEBF0FBE2D
:1017C000CDBFDF91CF911F9108952F923F924F92FD
:1017D0005F926F927F928F929F92AF92BF92CF92C1
:1017E000DF92EF92FF920F931F93CF93DF93CDB7CA
:1017F000DEB7AE970FB6F894DEBF0FBECDBF7CA3A9
:101800006BA3009709F49DC2842E1C01DC011D927C
:101810001C924E71BE016D5D7F4FCE0101960E94FC
:1018200076038111F7C2CE0147969E8B8D8BCBA09C
:10183000DCA0F60180818F3211F08C3519F4FFEFB6
:10184000CF1ADF0A282D2F712DA71F82188619861F
:101850001A86D6018C91803270F460E070E0CE017F
:1018600001960E9471071C8A1B8AE12CF12C8823A7
:1018700009F49CC2A2C26894BB24B5F8A12C712CB7
:101880006894662463F8412C562C4EA6F60103C0DA
:10189000FD0101C0FD019F01DF018D918F32C1F378
:1018A0008C35C1F36D897E89DB01CB010B96BD922E
:1018B000A817B907E1F74A2D572DC12CD12CE62CDA
:1018C000F42C912C3AA729A77EA36DA3392DBFEF45
:1018D000CB1ADB0A7191713208F444C27F3209F4E9
:1018E00038C27C3509F435C27E3219F04E155F05D9
:1018F00090F028E0E216F10409F078C27E3209F097
:1019000075C2330F330F452D5EA50F2EFBE0EF2E72
:10191000F02DF12CDCCF77230CF468C2072F10E0F8
:101920000232110509F436C2A1E2B1E08D9188239B
:1019300009F409C290E008171907C1F786E02FC221
:10194000326006C08FE9870F8A3110F4316070521F
:10195000ADA1BEA1A40FB51F7C934F5F5F4FB7CF62
:10196000452B09F443C2DB019C91953E11F4E5E05F
:10197000EC93F8E0EF16F10411F4990C990C992D01
:101980009370913009F48061992D9C70943009F422
:101990008860DB011B968C936A2D772DCE01019612
:1019A0000E9471078111ECC14F85588969897A8934
:1019B00089819A810E94D8028111E2C1EB88FC885A
:1019C000F70180818823D9F0638563FD0FC04D89BD
:1019D0005E89DA019701255F3F4F04C02E173F074C
:1019E00009F4C9C191918D919817C1F36A2D772D92
:1019F000CE0101960E94590A8823B1F2C1C1ED8936
:101A0000FE89938592FDC8C185E0C9C164FFC6C146
:101A1000D7015A968D919C915B97A0E0B0E0E98147
:101A2000FA812081233061F4F7014489558960E00F
:101A300070E0BA0155274427842B952BA62BB72B92
:101A40008F839887A987BA8721CF882309F455C047
:101A5000843009F04AC060E070E0CE0101960E9437
:101A60007107811119C04F85588969897A898981DF
:101A70009A810E94D80281110FC0EB89FC89808174
:101A8000853E79F0882369F061E070E0CE0101962F
:101A90000E94590A882339F3843009F4ABC18111BB
:101AA000ACC14F85588969897A8989819A810E9458
:101AB000D8028111A2C1EB89FC89CF0180961192D5
:101AC000E817F907E1F76D897E894BE050E08B89D3
:101AD0009C890E940702E981FA8181E08483FDA547
:101AE000F860FDA7EB88FC8810C02DA528602DA705
:101AF000EB88FC88882349F08DC1D7011B968C9117
:101B0000817109F080C182FC80C1BDA5B3FFCAC04C
:101B100080E090E0A1E2B8E4F70186879787A08B88
:101B2000B18B868B978BA08FB18F1386D701148EC4
:101B3000158E168E178EC980DA80828C938CA12C1C
:101B4000B12CF6018081833069F454968D919C917B
:101B50005597A0E0B0E0DC0199278827882A992AC8
:101B6000AA2ABB2AD7015B961C921E925A975596B9
:101B70001C921E92549781E0F60184838114910493
:101B8000A104B10409F48BC022A533A544A555A531
:101B900029A73AA74BA75CA7B2E08B169104A10432
:101BA000B10408F414C182899389A489B58988167F
:101BB0009906AA06BB0608F00CC18DA29EA2AFA290
:101BC000B8A64DA15EA16FA178A5C6010E948A06A4
:101BD0002B013C016115710581059105E9F1613029
:101BE00071058105910509F4F6C06F3F7F4F8F4F56
:101BF0009F4F09F4F2C000E010E098014DA15EA1F2
:101C00006FA178A5C6010E942D088111E7C0F601D9
:101C100086859785A089B1898F3FFFEF9F07AF0722
:101C2000BF0759F00196A11DB11DF6018687978760
:101C3000A08BB18B8581816085834DA25EA26FA24E
:101C400078A6F60182899389A489B5894816590630
:101C50006A067B0608F4B5CF89819A81F1E08F1A74
:101C60009108A108B108DC011A968D929D92AD925F
:101C7000BC921D9749A55AA56BA57CA50E94D802C8
:101C8000882369F0C7C08111C5C0F701838584FD31
:101C9000BEC081FE02C080FDBCC083FE03C0FDA5A6
:101CA000F062FDA7E981FA8182A593A5A4A5B5A557
:101CB000F101828F938FA48FB58FF78EE68EEDA5FD
:101CC000D1011496EC93149715961C9209811A81F0
:101CD000D7015A968D919C915B97A0E0B0E0F801F6
:101CE0002081233061F4F7014489558960E070E078
:101CF000BA0155274427842B952BA62BB72BF1012E
:101D000086879787A08BB18BF701848D958DA68DE3
:101D1000B78DF10182879387A487B58716821782D2
:101D200010861186168A178A108E118E11830083F1
:101D3000D80116968D919C9117979383828380E0AA
:101D400069C089E067C08FEB870F8A3108F4F8CD4E
:101D5000F9CD6DA17EA1932E29A53AA5C20ED31E61
:101D600080E0FECD6DA17EA1932E29A53AA5C20EDD
:101D7000D31E84E0F5CDFA01838582FF47CE06C0ED
:101D8000ED89FE899385843051F43CCEE114F10451
:101D9000C9F40CC086E003C084E001C085E0EB8894
:101DA000FC88982D9C7109F050CE6DCF182D1C71B8
:101DB00019F5E12CF12C86E015C0182D1C7109F0E5
:101DC00047CE10C0882D8C7109F097CE5ECF82E08F
:101DD00005C082E003C082E001C081E0882309F4ED
:101DE0005ECF18C0882309F46ACF14C0EB88FC8842
:101DF00086E0E3CF87E001C086E0FDA5F860FDA79F
:101E0000EB88FC88EFCF87E005C088E003C084E062
:101E100001C087E0AE960FB6F894DEBF0FBECDBF0F
:101E2000DF91CF911F910F91FF90EF90DF90CF90B6
:101E3000BF90AF909F908F907F906F905F904F90EA
:101E40003F902F9008952F923F924F925F926F9202
:101E50007F928F929F92AF92BF92CF92DF92EF923A
:101E6000FF920F931F93CF93DF93EC014B016A0115
:101E70005901F901118210820E94510381110CC194
:101E80008D81811109C18C8180FF03C18A859B8569
:101E9000AC85BD854E815F8168857985841B950BF6
:101EA000A60BB70BA60160E070E084179507A607A4
:101EB000B70708F46C01C114D10409F4ECC04E81D9
:101EC0005F8168857985DB01CA019170AA27BB27EC
:101ED000892B8A2B8B2B09F098C0E881F98112811C
:101EE0001150DB01CA01072E79E0B695A7959795A9
:101EF00087957A95D1F7702D182329F5452B462B18
:101F0000472B29F46E857F858889998907C04A897E
:101F10005B896C897D89CF010E948A0662307105D8
:101F20008105910518F482E08D83B6C06F3FFFEF05
:101F30007F078F079F0719F481E08D83ADC06A8BFF
:101F40007B8B8C8B9D8B288039804A895B896C893F
:101F50007D89C1010E9462066115710581059105A7
:101F600019F482E08D8398C02B013C01410E511C75
:101F7000611C711C7601EF2CFF24E694E114F1043E
:101F800009F43FC0F1014281242F30E0C701810FE5
:101F9000911D2817390718F47901E11AF108870112
:101FA000A3019201B401F10181810E946B16882383
:101FB00019F081E08D8370C0E881F98184818823E4
:101FC000E1F082A593A5A4A5B5A584199509A60954
:101FD000B709A70160E070E084179507A607B70767
:101FE00060F4BF01625D7F4F982F8827990F40E012
:101FF00052E0880D991D0E940702FE2CEE24FF0C72
:102000002DC04E8A5F8A688E798E8E819F819170F5
:1020100020E032E07901E81AF90ACE14DF0408F46E
:1020200076014E895F89688D798D888199810E94BA
:10203000D802882319F081E08D832EC08E819F8184
:10204000A885B9859170AA27BB278E96688179816A
:10205000680F791FA701C4010E9407028E0C9F1C04
:102060008E819F81A885B9858E0D9F1DA11DB11DF3
:102070008E839F83A887B987F501808191818E0D1A
:102080009F1D91838083CE18DF0809F018CF80E070
:1020900003C087E001C080E0DF91CF911F910F91D5
:1020A000FF90EF90DF90CF90BF90AF909F908F9078
:1020B0007F906F905F904F903F902F9008952F9258
:1020C0003F924F925F926F927F928F929F92AF92C8
:1020D000BF92CF92DF92EF92FF920F931F93CF9315
:1020E000DF93EC014B016A015901F9011182108261
:1020F0000E94510381116DC18D8181116AC18C8152
:1021000081FF66C18E819F81A885B985AC01BD0123
:102110004C0D5D1D611D711D481759076A077B072E
:1021200008F440C1C114D10409F43CC14E815F815F
:1021300068857985DB01CA019170AA27BB27892BA5
:102140008A2B8B2B09F0E8C0E881F98112811150AC
:10215000DB01CA01072E79E0B695A795979587957B
:102160007A95D1F7702D182309F042C0452B462BE4
:10217000472B81F46E857F85888999896115710562
:1021800081059105A1F440E050E0BA01CF010E9421
:10219000550907C04A895B896C897D89CF010E94F6
:1021A0005509611571058105910509F4FBC0613080
:1021B00071058105910519F482E08D830AC16F3F95
:1021C000FFEF7F078F079F0719F481E08D8301C11F
:1021D0006A8B7B8B8C8B9D8B4E845F84688879881F
:1021E00045284628472821F46E877F87888B998B5E
:1021F000E881F98142A553A564A575A58E899F89BB
:10220000A88DB98D481759076A077B0741F4CF019C
:102210000E946D02882319F081E08D83DAC0288046
:1022200039804A895B896C897D89C1010E94620677
:10223000611571058105910519F482E08D83C9C08E
:102240002B013C01410E511C611C711C7601EF2CCD
:10225000FF24E694E114F10409F43FC0F101428146
:10226000242F30E0C701810F911D2817390718F47A
:102270007901E11AF1088701A3019201B401F1018A
:1022800081810E94C116882319F081E08D83A1C04D
:10229000E881F98182A593A5A4A5B5A5841995091E
:1022A000A609B709A70160E070E084179507A607A3
:1022B000B70778F4982F8827990FB401680F791F12
:1022C00040E052E0CF018E960E940702E881F9813A
:1022D0001482FE2CEE24FF0C4CC04E815F81688579
:1022E00079858A859B85AC85BD85481759076A071E
:1022F0007B0770F0C1010E946D02882319F081E014
:102300008D8367C0E881F98142A653A664A675A6AD
:102310004E8A5F8A688E798E8E819F81917020E0CF
:1023200032E07901E81AF90ACE14DF0408F47601E4
:102330004E895F89688D798D888199810E94D80244
:10234000882319F081E08D8344C08E819F81A88508
:10235000B9859170AA27BB278E9628813981A7015C
:10236000B401820F931F0E940702E881F98121E0E6
:1023700024838E0C9F1C8E819F81A885B9858E0D2C
:102380009F1DA11DB11D8E839F83A887B987F5016D
:10239000808191818E0D9F1D91838083CE18DF08EF
:1023A00009F0C4CE8E819F81A885B9854A855B8559
:1023B0006C857D85481759076A077B0720F48A8753
:1023C0009B87AC87BD878C8180628C8380E001C055
:1023D00087E0DF91CF911F910F91FF90EF90DF90F9
:1023E000CF90BF90AF909F908F907F906F905F90B5
:1023F0004F903F902F9008950F931F93CF93DF93AB
:10240000EC010E945103982F811198C08C8185FFA7
:1024100095C04A8D5B8D6C8D7D8D888199810E94E0
:10242000D802982F81118AC0EE8DFF8D838580623E
:1024300083878A859B85AC85BD85848F958FA68F84
:10244000B78F8E859F85A889B989938F828FB58B29
:10245000A48B80E090E0A1E2B8E4868B978BA08FFC
:10246000B18F138A128A8C818F7D8C83E881F981E8
:1024700081E084830990D881C02DCE010E946D0235
:10248000982F81115BC08881833009F04DC08D8108
:10249000813009F049C0BE01625D7F4FFB01CE0172
:1024A000825D9D4F1192E817F907E1F785E59AEAF9
:1024B000FE01E45DFD4F9183808382E592E5A1E614
:1024C000B1E48EA79FA7A8ABB9AB82E792E7A1E4DE
:1024D000B1E67A9780839183A283B3838E859F85AB
:1024E000A889B989349680839183A283B3838A852E
:1024F0009B85AC85BD85349680839183A283B3830D
:102500008A8D9B8DAC8DBD8D9C01AD012F5F3F4FA2
:102510004F4F5F4F2AA73BA74CA75DA701E010E0F4
:1025200089810E94C1161D8240E050E060E08981EF
:102530000E94361791E0811101C090E0892FDF9150
:10254000CF911F910F910895CF93DF93EC010E94DB
:10255000FC11811107C0CE010E945103811102C0FC
:1025600019821882DF91CF9108954F925F926F92F6
:102570007F928F929F92AF92BF92CF92DF92EF9213
:10258000FF920F931F93CF93DF9300D000D000D022
:10259000CDB7DEB79E838D836A017B010E94510314
:1025A000811193C1AD81BE8115968C9115978111D2
:1025B0008CC11A968D919D910D90BC91A02D8C157A
:1025C0009D05AE05BF0538F4ED81FE81248121FD16
:1025D00002C06C017D01AD81BE8116964D905D906B
:1025E0006D907C901997FD011682178210861186D6
:1025F000C114D104E104F10409F464C10081118122
:10260000D80112968C90912CA12CB12C072E79E038
:10261000880C991CAA1CBB1C7A95D1F7702D41140B
:1026200051046104710409F440C0B1E04B1A51082F
:1026300061087108C701B6016150710981099109EA
:10264000A50194010E946F2029833A834B835C8308
:10265000C301B201A50194010E946F2089819A8172
:10266000AB81BC8182179307A407B507F0F08827D8
:102670009927DC0188199909AA09BB09482259221E
:102680006A227B22AD81BE8116964D925D926D923B
:102690007C921997C418D508E608F70852964D9110
:1026A0005D916D917C91559737C0ED81FE81468596
:1026B000578560897189411551056105710531F5AD
:1026C00040E050E0BA01C8010E945509AB01BC01CD
:1026D000413051056105710531F482E0AD81BE8163
:1026E00015968C93F2C04F3FBFEF5B076B077B07DC
:1026F00029F481E0ED81FE818583E7C0AD81BE8153
:102700001E964D935D936D937C935197ED81FE8161
:10271000428B538B648B758B411551056105710597
:1027200009F499C08C149D04AE04BF0408F05FC086
:10273000AD81BE8114968C91149781FF0CC08D9150
:102740009C910E945509AB01BC01411551056105E1
:10275000710549F44AC0AD81BE818D919C910E9462
:102760008A06AB01BC014F3FBFEF5B076B077B07DE
:1027700029F4ED81FE8181E08583A7C042305105B7
:102780006105710568F0AD81BE81ED91FC91828992
:102790009389A489B589481759076A077B0728F0E8
:1027A000ED81FE8182E0858390C0AD81BE8152962D
:1027B0004D935D936D937C935597FD018681978131
:1027C000A085B185880D991DAA1DBB1D86839783A1
:1027D000A087B187C818D908EA08FB088C149D04A3
:1027E000AE04BF0408F4A4CF02C075016401ED81FA
:1027F000FE8186819781A085B1858C0D9D1DAE1DC2
:10280000BF1D86839783A087B187D701C6019170CA
:10281000AA27BB27892B8A2B8B2B09F180819181D9
:102820000E946206611571058105910531F482E00F
:10283000AD81BE8115968C9348C00B2EB9E0F694FD
:10284000E794D794C794BA95D1F7B02DC60ED71E8A
:10285000E81EF91E07C0C12CD12C760103C0C12C83
:10286000D12C7601ED81FE8186819781A085B1858D
:10287000AC01BD01517066277727452B462B472BAE
:1028800069F046895789608D718DC416D506E606B4
:10289000F70621F0C68AD78AE08EF18EED81FE819F
:1028A0004285538564857585481759076A077B07F4
:1028B00058F482879387A487B58784818062848354
:1028C00080E003C080E001C080E026960FB6F89457
:1028D000DEBF0FBECDBFDF91CF911F910F91FF9053
:1028E000EF90DF90CF90BF90AF909F908F907F90B0
:1028F0006F905F904F9008951CBC209884B18977A9
:1029000084B985B1897F85B92F9A08958EBD0DB49C
:1029100007FEFDCF8EB508952F9A8FEF0E94861483
:1029200008952F988FEF0E94861482E380931303FB
:102930008FEF0E9486148F3F49F08091130381111D
:10294000F7CF0E948C1480E090E0089581E090E041
:1029500008950F931F93CF93DF93082F192FEB0147
:1029600084E1809314038FEF0E9486148F3F39F423
:10297000809114038111F7CF80E090E022C08E3F58
:10298000F1F4E02FF12F8FEF8EBD0DB407FEFDCFD8
:102990009EB5DF0190838EBD0DB407FEFDCF9EB5C1
:1029A00011969C9322973296209771F78FEF0E9491
:1029B00086148FEF0E94861481E090E002C080E0D0
:1029C00090E0DF91CF911F910F910895FF920F93A7
:1029D0001F93CF93DF93C82FD42F152F062FF72ED9
:1029E000882354F440E050E0BA0187E30E94E614E3
:1029F000823008F04EC0CF77CC3039F10E948C1471
:102A00000E949114892BF9F08C2F80640E94861407
:102A10008F2D0E948614802F0E948614812F0E9481
:102A200086148D2F0E948614CC2379F12BC08FEF52
:102A30000E948614CAE08FEF0E94861488234CF50A
:102A4000C150C9F726C08FEF24C08CE40E948614C1
:102A50008F2D0E948614802F0E948614812F0E9441
:102A600086148D2F0E94861481E00E948614CC303B
:102A7000F1F2E0CF87E80E948614DCCF81E00E946B
:102A80008614D8CFC830B1F3F9CF85E90E948614F7
:102A9000D1CFDF91CF911F910F91FF9008951F9398
:102AA000CF93DF93EC01162F82E3809313038FEF14
:102AB0000E9486148F3F31F0809113038111F7CF6C
:102AC00090E02BC0812F0E9486141D3F21F1FE0152
:102AD0009E013E5FDF0190819EBD0DB407FEFDCFDC
:102AE00011969C919EBD0DB407FEFDCF3296E21764
:102AF000F30781F78FEF0E9486148FEF0E948614F0
:102B00008FEF0E948614282F2F7181E090E02530EE
:102B100021F080E002C081E090E0DF91CF911F9131
:102B20000895CF92DF92EF92FF920F931F93CF936E
:102B3000DF9300D000D0CDB7DEB78111ABC00E94CB
:102B40007C148091060181FF03C080910601AFC013
:102B5000209A85B1826885B984B1866884B982E596
:102B60008CBD91E09DBD8CBD1AE08FEF0E94861454
:102B70001150D9F740E050E0BA0180E00E94E6141D
:102B8000813009F08FC084E6809314034AEA51E053
:102B900060E070E088E00E94E614813009F041C0F6
:102BA000CE0101966C017E0195E0E90EF11C8601D3
:102BB0008FEF0E948614F80181938F01EE15FF05B7
:102BC000B9F78B81813009F06DC08C818A3A09F0A8
:102BD00069C080911403882349F040E050E060E030
:102BE00070E489EA0E94E6148111F3CF8091140306
:102BF000882309F457C040E050E0BA018AE30E94FC
:102C0000E61481114FC08FEF0E948614F601819364
:102C10006F01EE16FF06B9F7898186FD3DC084E09D
:102C20003CC040E050E0BA0189EA0E94E6148230DC
:102C300018F001E011E002C002E019EA80911403EB
:102C4000882341F040E050E0BA01812F0E94E61451
:102C50008111F4CF80911403882321F140E052E0E8
:102C600060E070E080E10E94E61481111BC00093D7
:102C700012030E948C14002341F0809106018E7F84
:102C80008093060180E58CBD02C00E947C14809177
:102C900006010DC081E00BC08CE0809312030E94FE
:102CA0008C14EBCF109212030E948C14EECF0F9075
:102CB0000F900F900F90DF91CF911F910F91FF9088
:102CC000EF90DF90CF900895811103C080910601AD
:102CD000089581E00895FF920F931F93CF93DF93A0
:102CE000EB01811143C00115110509F441C0809128
:102CF000060180FD3FC08091120383FD09C0012EB3
:102D000019E0220F331F441F551F1A95D1F7102DBC
:102D10000230110528F40F2EF1E1FF2EF02D04C032
:102D20000F2EF2E1FF2EF02DBA01A9018F2D0E9486
:102D3000E614811114C060E072E0CE010E94A91473
:102D4000892B21F0DE5F01501109A9F782E1F81209
:102D500006C040E050E0BA018CE00E94E6140E94F8
:102D60008C1481E0012B39F480E005C084E003C0BD
:102D700084E001C083E0DF91CF911F910F91FF901C
:102D80000895CF92DF92EF92FF920F931F93CF930C
:102D9000DF93EB0169017A01811158C0011511051A
:102DA00009F456C08091060180FD54C0809106014F
:102DB00082FD52C08091120383FD09C00B2EB9E041
:102DC000CC0CDD1CEE1CFF1CBA95D1F7B02D0130E8
:102DD000110599F4B701A60188E10E94E61481115A
:102DE0002EC06EEFCE010E944F1531E020E0892BFE
:102DF00009F030E0032F122F22C0867031F0A801B5
:102E000060E070E087E90E94E614B701A60189E15D
:102E10000E94E614811113C06CEFCE010E944F1581
:102E2000892B21F0DE5F01501109B1F76DEF80E0D1
:102E300090E00E944F15892B11F401E010E00E94F0
:102E40008C1481E0012B49F480E007C084E005C0C8
:102E500084E003C083E001C082E0DF91CF911F9145
:102E60000F91FF90EF90DF90CF900895EF92FF9237
:102E70000F931F93CF93DF93CDB7DEB760970FB655
:102E8000F894DEBF0FBECDBF811194C180910601C1
:102E900080FD92C18A01862F90E08733910508F06A
:102EA00070C1FC01EA5AFF4F0C9491200E949114CA
:102EB00011E0892B09F47AC110E078C140E050E0BC
:102EC000BA0189E00E94E61481115DC160E170E001
:102ED000CE0101960E94A914892B09F456C189815B
:102EE0008295869586958370813031F5298530E00D
:102EF000322F22278A85280F311D88858F7390E015
:102F0000A0E0B0E0DC01992788270196A11DB11D42
:102F1000820F931FA11DB11D072E7AE0880F991F04
:102F2000AA1FBB1F7A95D1F7702DF801808391837A
:102F3000A283B38310E03AC18985829586958695F0
:102F40008370288590E0F4E02F9F800D911D11245F
:102F50009C012F5F3F4F8F81837090E0982F8827CF
:102F6000990F990F820F931FA0E0B0E03E813F7050
:102F70002B85221F2227221F320F2A852370220F22
:102F8000230F275004C0880F991FAA1FBB1F2A9523
:102F9000D2F7F80180839183A283B38310E006C146
:102FA000F0901203F2FE33C040E050E0BA018DE829
:102FB0000E94E6148111EBC08FEF0E94861460E13D
:102FC00070E0CE0101960E94A914892B09F4E1C09A
:102FD0000F2EF0E3FF2EF02D8FEF0E948614FA944F
:102FE000F110FACF2B8522952F7080E190E0A0E0C0
:102FF000B0E004C0880F991FAA1FBB1F2A95D2F703
:10300000F80180839183A283B38310E0CFC040E0B6
:1030100050E0BA0189E00E94E6148111BCC060E171
:1030200070E0CE0101960E94A914892B09F4B5C065
:10303000F1FE20C02B852F738C85881F8827881F61
:1030400090E00196820F911D820F911D2E85229591
:10305000269526952370215002C0880F991F2A9526
:10306000E2F7A0E0B0E0F80180839183A283B3830C
:1030700010E09CC08C85282F2370829586958770E0
:1030800090E0F8E02F9F800D911D112401962B8573
:103090002C7730E035952795359527952F5F3F4F55
:1030A000829FA001839F500D929F500D1124CA0151
:1030B000A0E0B0E0F80180839183A283B38310E0A5
:1030C00075C080911203FA01808310E06FC040E068
:1030D00050E0BA0189E00E94E614811160C060E10D
:1030E00070E0C8010E94A91411E0892B09F45EC0A8
:1030F00010E05CC040E050E0BA018AE00E94E614B3
:1031000081114FC060E170E0C8010E94A91411E074
:10311000892B09F44BC010E049C040E050E0BA01EF
:103120008AE30E94E61481113EC078010C5F1F4FB4
:103130008FEF0E948614F70181937F010E171F07FE
:10314000B9F710E033C040E050E0BA018DE80E94CA
:10315000E61481112AC08FEF0E94861460E470E0AB
:10316000C8010E94A91411E0892B01F110E01EC0D2
:103170000E947C148091060181608093060110E01A
:1031800015C014E013C011E011C011E00FC011E030
:103190000DC011E00BC011E009C011E007C011E043
:1031A00005C011E003C011E001C011E00E948C14C1
:1031B000812F03C084E001C083E060960FB6F894CD
:1031C000DEBF0FBECDBFDF91CF911F910F91FF905A
:1031D000EF90089580911403882319F08150809313
:1031E000140380911303882319F0815080931303F3
:1031F00080910601897F80930601089581E0809384
:10320000D70080EA8093D80082E189BD09B400FE2E
:10321000FDCF80E98093D8001092E000109218034F
:10322000109215038CE08093E200789408952FB7F4
:10323000F89480911803811104C02FBF8FEF9FEF86
:10324000089583E08093E9008091E80085FD12C035
:1032500082FD04C00BC082FD04C008C0E8EEF0E0AF
:103260009BE69083808185FFF6CF04C02FBF8FEF50
:103270009FEF08958091F1009091E80095FD03C0C3
:103280009BE69093E8002FBF90E008959FB7F894D5
:1032900080911803882389F083E08093E90080916E
:1032A000F20081110BC02091E80022FF07C025FD2C
:1032B00005C02BE62093E80001C080E09FBF089581
:1032C000CF93DF9390911803992309F44CC09FB7D3
:1032D000F89424E02093E90020911603222349F07A
:1032E0002091E80025FD03C09FBF8FEF41C01092E1
:1032F00016033091E400375E2091E80025FD24C0DC
:103300009FBF9091E400391781F0909118039923A1
:1033100061F1A9EEB0E044E0E8EEF0E0C4EED0E008
:103320000DC09FBF9881391305C081E080931603BB
:103330008FEF1EC0909118039923C9F09FB7F8949E
:103340004C93208125FFEDCF8093F1008091E80020
:1033500085FD03C08AE38093E80085E0809317032E
:103360009FBF80E005C08FEF03C08FEF01C08FEFDC
:10337000DF91CF9108951F920F920FB60F921124F3
:103380008F939F93EF93FF93E1EEF0E080811082A3
:1033900083FF11C01092E90091E09093EB0010922E
:1033A000EC0092E19093ED0098E09093F000109281
:1033B00018031092150382FF13C08091180388230D
:1033C00079F080911703882359F081508093170377
:1033D000811106C084E08093E9008AE38093E800CD
:1033E000FF91EF919F918F910F900FBE0F901F90C3
:1033F00018951F920F920FB60F9211240F931F93DF
:103400002F933F934F935F936F937F938F939F93EC
:10341000AF93BF93CF93DF93EF93FF931092E900A5
:103420008091E80083FF4FC1E1EFF0E0A08180814F
:103430002081908130E0392B4081908150E0BA01A9
:10344000792BC081D08192EF9093E800863009F00B
:1034500059C004C081E28093EB003CC14AE151E0D5
:1034600004E411E0CA01FA01A591B4912A173B07BF
:1034700009F5FA013296A591B4916A177B07D1F448
:10348000FA01349645915491FC01369624918C2F83
:1034900090E09D2B8F3F910519F010F08FEF90E099
:1034A000821708F4282FA8EEB0E070E16EEFC1EFAC
:1034B000D0E006C0495F5F4F4017510799F6CACF69
:1034C0008C91982F9570E1F382FD04C1322F213148
:1034D00008F0372F332309F4FAC0FA01832F9491AF
:1034E0009883815031968111FACF8FEF830F90E04E
:1034F0000196480F591F231B6C932111E1CF3031E6
:10350000F9F2E8C0853061F48EEF8093E800E8EED0
:10351000F0E0808180FFFDCF20682093E300DAC0D7
:10352000893009F035C0A111CEC020931803109244
:103530001503109217038EEF8093E80081E029EDC8
:1035400031E0C9EED0E0ABEEB0E00CEE10E06DEE95
:1035500070E08883A9014F5F5F4FF90194919C93BC
:10356000992361F0FA014491F8014083F901329600
:1035700094912D5F3F4FFB01908301C09A018F5FB3
:10358000853039F7EAEEF0E08EE180831082A2C048
:10359000883081F4A03809F096C0E8EEF0E0808130
:1035A00080FFFDCF809118038093F1008EEF809310
:1035B000E80090C08132B9F4A13A09F084C0E8EE85
:1035C000F0E0808180FFFDCFE7E0F1E02EE031E028
:1035D000A1EFB0E081918C932E173F07D9F78EEFC2
:1035E0008093E80077C08032D1F4A13209F06BC03B
:1035F000E8EEF0E0808182FFFDCFE7E0F1E02EE031
:1036000031E0A1EFB0E08C9181932E173F07D9F7FD
:10361000E8EEF0E08BEF80838EEF80835BC0823238
:1036200071F4A13209F04FC020931503E8EEF0E0E9
:10363000808180FFFDCF8EEF8093E8004BC0811129
:103640001AC0E8EEF0E0808180FFFDCFA23851F48F
:10365000E9EEF0E060838091EB0085FB882780F93C
:10366000108201C080E0E1EFF0E0808310828EEFF5
:103670008093E8002FC0982F9D7F913021F5A230D4
:1036800011F5232B01F5462F4F779FEF940F9430C0
:10369000D0F49EEF9093E8004093E900833021F44A
:1036A00081E28093EB0016C089E18093EB0081E01A
:1036B00090E002C0880F991F4A95E2F7EAEEF0E029
:1036C0008083108207C081E28093EB0003C06C937B
:1036D0002111F6CEFF91EF91DF91CF91BF91AF9184
:1036E0009F918F917F916F915F914F913F912F911A
:1036F0001F910F910F900FBE0F901F901895809102
:103700002503909126030197909326038093250328
:10371000892B21F481E080932203089581E090E0D9
:10372000909324038093230308958091250390911F
:10373000260301979093260380932503892B31F468
:103740000E941C0181E080932203089581E090E0B3
:1037500090932403809323030895E1E6F0E080E84A
:10376000808310820895F8940E94AD1B8AE682BF80
:103770000E947B1D0E94861D6FE77BE185E99BE12E
:103780000E9445010E941101789480B38F7880BB1C
:103790008AB1806F8AB90E947A1F08958091360796
:1037A000809138078091370710921E0310921D03F5
:1037B00010921C0310921B0310921A03109219030B
:1037C000089580911E03882321F08091360780930D
:1037D0001D0380911D03982F907490931C03807893
:1037E00080931B0390911A03911125C081111BC076
:1037F00022C081E080931F0380930E011092210369
:103800005F9A0CC080911F03813041F410921F0316
:1038100082E080930E01109221035F9880911B0338
:1038200080931A03089581E08093190380911F0308
:103830008111E8CFDECF10921903F0CF0E945A0118
:10384000109228031092270384E893E090932603B4
:103850008093250310922403109223030E94901F4B
:103860000E9418018BB180668BB90895F894E1E647
:10387000F0E090E89083108280B38F7880BB8AB1AB
:10388000806F8AB9269A84E08093C10021E2209358
:10389000C0002FEF2093D1009093D000809372004E
:1038A0001092BF001092BE000E947B1D7894089574
:1038B0000E945A0180912703909128039093260338
:1038C0008093250310921F0382E080930E011092D3
:1038D00021035C9A0E94B01F0E94E80160E074E03E
:1038E0000E94342010922403109223030E94361C5D
:1038F0000E94CE1B0E94E11B089581E0809320036B
:103900001092BF001092BE001092C0001092720080
:103910001092D00008951F920F920FB60F921124AB
:103920002F933F934F935F936F937F938F939F93C7
:10393000AF93BF93EF93FF93CA9905C08091210382
:103940008F5F809321039091210380910E01981342
:1039500006C00E9499018093D000109221038091AB
:1039600038078093370780913607809338078FB1E7
:103970008095809336079091360780913807981389
:103980000AC09091360780913707981304C081E0F0
:1039900080931E0302C010921E03FF91EF91BF910E
:1039A000AF919F918F917F916F915F914F913F91D7
:1039B0002F910F900FBE0F901F9018950E94B31B70
:1039C0000E94CE1B01E411E0EE24E394F12CCFE23F
:1039D000D1E06894DD24D1F85E9A7C990CC0DF9325
:1039E000CF930E94B1200E94581C5E980F900F90B8
:1039F0007D994AC002C07D99EFCF1F930F930E941B
:103A0000B1200E941E1C5E980F900F9067C0F0922C
:103A10002603E09225038091230390912403892BB0
:103A2000A1F0809127039091280301969093280399
:103A30008093270310922403109223030E94C9014C
:103A400060E072E00E94E31F49C080912203882356
:103A500009F444C0109222030E94C90160E072E0A0
:103A60000E94E31F0E94C81F0E941C0184E591E090
:103A70000E94C7205D987D99AFCF88E691E00E94B3
:103A8000C7207D99A9CFF9CF0E94E11B8091230324
:103A900090912403892B59F0109224031092230350
:103AA0000E94E80160E072E00E943420EDCF809136
:103AB0002203811102C07E99E7CF109222030E9457
:103AC000C81F0E947D1C84E591E00E94C7205C987D
:103AD0005F9810921F03D0920E017ECF7E9B97CFEE
:103AE0009ACF0E9446198823E1F30E94171908957E
:103AF0000E94601908950E94FE18E3EBF9E08FE040
:103B000091E09183808393838283089580E887BDC9
:103B100082E084BD80936E0085BD579A08951F9200
:103B20000F920FB60F9211242F933F934F935F93F1
:103B30006F937F938F939F93AF93BF93EF93FF9375
:103B400080911F01815080931F01811105C08CE974
:103B500080931F010E94EA1880911D0190911E011F
:103B6000019790931E0180931D01892B31F485E804
:103B70009EE190931E0180931D01FF91EF91BF91F3
:103B8000AF919F918F917F916F915F914F913F91F5
:103B90002F910F900FBE0F901F901895FB01DC0125
:103BA0009B012C5F3F4F81918D93E217F307D9F76B
:103BB00008958F929F92AF92BF92FF920F931F939F
:103BC000CF93DF934B015C01142FF22E6FE871E06D
:103BD00087E899E00E94CE1DC7E8D9E01C821D82CB
:103BE0001E821F8264E971E08FE899E00E94CE1D79
:103BF00069E971E083E999E00E94CE1D80E190E0DF
:103C0000A0E0B0E0888B998BAA8BBB8B81E090E021
:103C10009D8B8C8BEF2DF0E0FF8BEE8B888E998E39
:103C2000AA8EBB8E012F069506950695A02FB0E0B3
:103C3000A50194010E9497209B01AC01DF010E9425
:103C400097206C8F7D8F8E8F9F8F0E9FC0010F9F4F
:103C5000900D112499A388A3412F50E05BA34AA3A0
:103C60006EE971E08BEA99E00E94CE1D18A619A6B4
:103C70001AA61BA6DF91CF911F910F91FF90BF90C5
:103C8000AF909F908F900895CF93DF9300D0CDB7E2
:103C9000DEB721E048E069E07DE380E090E00E944B
:103CA000D91D9E012F5F3F4F4CE250E067E879E05D
:103CB00087E699E00E945F10882361F01F928F933E
:103CC00083EA91E09F938F930E94B1200F900F9011
:103CD0000F900F9089819A818C32910561F09F93AA
:103CE0008F9384EC91E09F938F930E94B1200F906B
:103CF0000F900F900F9081E0809329030F900F9009
:103D0000DF91CF9108951F93CF93DF9300D0CDB76C
:103D1000DEB79E012F5F3F4F4CE250E067E879E04D
:103D200087E699E00E94230F182F882361F01F92E5
:103D30008F938AEE91E09F938F930E94B1200F9012
:103D40000F900F900F9089819A818C32910561F0CC
:103D50009F938F938AE092E09F938F930E94B1206C
:103D60000F900F900F900F9081E090E029813A81A1
:103D70002C32310511F480E090E0812B892B49F43D
:103D80006091AF097091B0098091B1099091B20929
:103D900003C060E070E0CB010F900F90DF91CF91F6
:103DA0001F910895CF93DF93CDB7DEB72A970FB653
:103DB000F894DEBF0FBECDBF80912A0390912B03F4
:103DC000A0912C03B0912D038B839C83AD83BE8384
:103DD0008496A11DB11D8F839887A987BA8744E077
:103DE00050E060E070E087E699E00E94B512882319
:103DF00061F01F928F9380E392E09F938F930E94D4
:103E0000B1200F900F900F900F909E012F5F3F4FAA
:103E100044E050E0BE01695F7F4F87E699E00E9471
:103E20005F10882361F01F928F9383EA91E09F9344
:103E30008F930E94B1200F900F900F900F90898167
:103E40009A818430910561F09F938F9381E592E090
:103E50009F938F930E94B1200F900F900F900F901F
:103E600048E250E060E070E087E699E00E94B51219
:103E7000882361F01F928F9380E392E09F938F934A
:103E80000E94B1200F900F900F900F909E012F5F16
:103E90003F4F44E050E0BE016D5F7F4F87E699E001
:103EA0000E945F10882361F01F928F9383EA91E054
:103EB0009F938F930E94B1200F900F900F900F90BF
:103EC00089819A818430910561F09F938F9381E578
:103ED00092E09F938F930E94B1200F900F900F90CC
:103EE0000F902A960FB6F894DEBF0FBECDBFDF91BC
:103EF000CF91089541E066E772E089E397E00E9480
:103F0000920B882361F01F928F9388E792E09F9332
:103F10008F930E94B1200F900F900F900F900895F3
:103F20004BE069E972E087E699E00E94E50B88239F
:103F300061F01F928F9384EA92E09F938F930E9487
:103F4000B1200F900F900F900F900E94441E10927E
:103F50002A0310922B0310922C0310922D03089524
:103F600041E069E972E087E699E00E94E50B882369
:103F700061F01F928F9384EA92E09F938F930E9447
:103F8000B1200F900F900F900F900E94831E089504
:103F900080912903882321F0109229030E94D21EC8
:103FA00087E699E00E94A412882361F01F928F9304
:103FB00084EC92E09F938F930E94B1200F900F901A
:103FC0000F900F9008950F931F93CF93DF9300D01E
:103FD000CDB7DEB78B019E012F5F3F4FAB01BC0118
:103FE00087E699E00E945F10882361F01F928F930B
:103FF00083EA91E09F938F930E94B1200F900F90DE
:104000000F900F9089819A810817190781F01F93EB
:104010000F939F938F9385EE92E09F938F930E94CF
:10402000B1200F900F900F900F900F900F908091F4
:104030002A0390912B03A0912C03B0912D03298189
:104040003A81820F931FA11DB11D80932A03909383
:104050002B03A0932C03B0932D030F900F90DF91AF
:10406000CF911F910F9108950F931F93CF93DF93DB
:1040700000D0CDB7DEB78B019E012F5F3F4FAB0164
:10408000BC0187E699E00E94230F882361F01F920C
:104090008F9383EA91E09F938F930E94B1200F90BA
:1040A0000F900F900F9089819A810817190781F05E
:1040B0001F930F939F938F9385EE92E09F938F931F
:1040C0000E94B1200F900F900F900F900F900F90C3
:1040D0000F900F90DF91CF911F910F910895A1E262
:1040E0001A2EAA1BBB1BFD010DC0AA1FBB1FEE1F72
:1040F000FF1FA217B307E407F50720F0A21BB30BBD
:10410000E40BF50B661F771F881F991F1A9469F738
:1041100060957095809590959B01AC01BD01CF0194
:104120000895EE0FFF1F0590F491E02D09940E9471
:10413000A220A59F900DB49F900DA49F800D911D6E
:1041400011240895A29FB001B39FC001A39F700DD9
:10415000811D1124911DB29F700D811D1124911D8F
:104160000895A0E0B0E0E7EBF0E20C949823AE01F4
:104170004B5F5F4FFA0161917191AF018091B50979
:104180009091B6090E94F720E2E00C94B4230F93BB
:104190001F93CF93DF93E091B509F091B609238186
:1041A00021FF1BC08C01D0E0C0E0F80181918F019C
:1041B0006091B5097091B609DB011896ED91FC91FB
:1041C0001997882331F00995892B79F3DFEFCFEF29
:1041D000ECCF8AE00995892B19F08FEF9FEF02C091
:1041E0008D2F9C2FDF91CF911F910F910895ABE000
:1041F000B0E0EDEFF0E20C9488236C017B018A01C2
:10420000FC0117821682838181FFCCC1CE01019609
:104210003C01F6019381F70193FD859193FF819114
:104220007F01882309F4BAC1853239F493FD859161
:1042300093FF81917F01853229F4B60190E00E94BD
:10424000EE22E7CF912C212C312CFFE1F315D8F091
:104250008B3279F038F4803279F08332A1F4232D57
:1042600020611DC08D3261F0803369F4232D2160FF
:1042700016C0832D8260382EE32DE4603E2E2AC0C6
:10428000F32DF8601DC037FC2DC020ED280F2A301B
:1042900040F08E32B9F436FC81C1232D2064322ED9
:1042A00019C036FE06C08AE0989E200D1124922E79
:1042B00011C0EAE02E9E200D1124222EF32DF06273
:1042C0003F2E08C08C3621F4832D8068382E02C022
:1042D000883641F4F70193FD859193FF81917F0129
:1042E0008111B3CF982F9F7D9554933028F40C5FA4
:1042F0001F4F9FE399830DC0833631F0833771F0F0
:10430000833509F059C021C0F801808189830E5F8F
:104310001F4F88248394912C530113C02801F2E08D
:104320004F0E511CF801A080B18036FE03C0692DEC
:1043300070E002C06FEF7FEFC5010E94E3224C01E5
:104340008201F32DFF773F2E16C0280122E0420E96
:10435000511CF801A080B18036FE03C0692D70E0C9
:1043600002C06FEF7FEFC5010E94D8224C01F32DF0
:10437000F0683F2E820133FC1BC0822D90E088162E
:104380009906B0F4B60180E290E00E94EE222A94F1
:10439000F4CFF50137FC859137FE81915F01B601BD
:1043A00090E00E94EE2221102A9421E0821A9108C6
:1043B0008114910471F7E8C0843611F0893641F513
:1043C000F80137FE07C060817181828193810C5FA3
:1043D0001F4F08C060817181072E000C880B990B5C
:1043E0000E5F1F4FF32DFF763F2E97FF09C090956C
:1043F0008095709561957F4F8F4F9F4FF0683F2E4E
:104400002AE030E0A3010E942A23882E861845C0A6
:10441000853731F4232D2F7EB22E2AE030E025C0DF
:10442000932D997FB92E8F36C1F018F4883579F025
:10443000B5C0803719F0883721F0B0C0E92FE061AE
:10444000BE2EB4FE0DC0FB2DF460BF2E09C034FE9D
:104450000AC0292F2660B22E06C028E030E005C031
:1044600020E130E002C020E132E0F801B7FE07C0F1
:1044700060817181828193810C5F1F4F06C06081D2
:10448000718180E090E00E5F1F4FA3010E942A23FC
:10449000882E8618FB2DFF773F2E36FE0DC0232D6C
:1044A0002E7FA22E891458F434FE0BC032FC09C0B2
:1044B000832D8E7EA82E05C0B82CA32C03C0B82C4B
:1044C00001C0B92CA4FE0FC0FE01E80DF11D8081D2
:1044D000803321F49A2D997EA92E09C0A2FE06C030
:1044E000B394B39404C08A2D867809F0B394A3FCE6
:1044F00011C0A0FE06C0B21488F4280C922C9B18A0
:104500000EC0B21460F4B60180E290E00E94EE2288
:10451000B394F7CFB21418F42B1802C0982C212CA6
:10452000A4FE10C0B60180E390E00E94EE22A2FE3D
:1045300017C0A1FC03C088E790E002C088E590E0C6
:10454000B6010CC08A2D867859F0A1FE02C08BE21C
:1045500001C080E2A7FC8DE2B60190E00E94EE224D
:10456000891438F4B60180E390E00E94EE229A9418
:10457000F7CF8A94F301E80DF11D8081B60190E038
:104580000E94EE228110F5CF222009F442CEB6011E
:1045900080E290E00E94EE222A94F6CFF601868116
:1045A000978102C08FEF9FEF2B96E2E10C94A4233A
:1045B000FC010590615070400110D8F780959095EE
:1045C0008E0F9F1F0895FC016150704001900110F3
:1045D000D8F7809590958E0F9F1F08950F931F9386
:1045E000CF93DF93FB01238121FD03C08FEF9FEF6A
:1045F0002CC022FF16C04681578124813581421785
:10460000530744F4A081B1819D012F5F3F4F318357
:1046100020838C93268137812F5F3F4F37832683FA
:1046200014C08B01EC01FB010084F185E02D09959C
:10463000892BE1F6D80116968D919C9117970196DA
:1046400017969C938E931697CE01DF91CF911F9171
:104650000F910895FA01AA27283051F1203181F1F4
:10466000E8946F936E7F6E5F7F4F8F4F9F4FAF4F7A
:10467000B1E03ED0B4E03CD0670F781F891F9A1F8D
:10468000A11D680F791F8A1F911DA11D6A0F711D41
:10469000811D911DA11D20D009F468943F912AE04D
:1046A000269F11243019305D3193DEF6CF01089535
:1046B000462F4770405D4193B3E00FD0C9F7F6CF66
:1046C000462F4F70405D4A3318F0495D31FD40522E
:1046D000419302D0A9F7EACFB4E0A69597958795C4
:1046E00077956795BA95C9F70097610571050895A3
:1046F0009B01AC010A2E069457954795379527954F
:10470000BA95C9F7620F731F841F951FA01D0895E6
:104710002F923F924F925F926F927F928F929F92D1
:10472000AF92BF92CF92DF92EF92FF920F931F93BF
:10473000CF93DF93CDB7DEB7CA1BDB0B0FB6F89470
:10474000DEBF0FBECDBF09942A88398848885F84B0
:104750006E847D848C849B84AA84B984C884DF8021
:10476000EE80FD800C811B81AA81B981CE0FD11D05
:104770000FB6F894DEBF0FBECDBFED010895F894DB
:02478000FFCF69
:104782003407340534030100E10000000008020090
:1047920000000300000000781D711D0000851E9CB2
:1047A200222A2B2C3A3B3C3D3E3F5B5D7C7F004204
:1047B2006567696E20506C61796261636B2E2E2E83
:1047C200005374617274205265636F7264696E671C
:1047D2002E2E2E00636F6D706C6574656420726599
:1047E200636F7264696E6700506C656173652072F5
:1047F200656C65617365207265636F7264206275B2
:1048020074746F6E202E2E2E2E2E2E2E2E200052DF
:10481200494646005741564500666D742000646162
:10482200746100665F77726974652072657475726F
:104832006E6564206572726F7220636F64653A20E0
:1048420025640A00665F77726974652077726F74F7
:1048520065202564206F6620343420627974657384
:1048620020746F2066696C652E00665F72656164F4
:104872002072657475726E6564206572726F722043
:10488200636F64653A2025640A00665F726561643D
:104892002072656164202564206F662034342062B2
:1048A200797465732066726F6D2066696C652E007F
:1048B200665F6C7365656B2072657475726E656494
:1048C200206572726F7220636F64653A2025640AF4
:1048D20000665F77726974652077726F7465202550
:1048E20064206F66203420627974657320746F20AF
:1048F20066696C652E002F00665F6D6F756E7420A1
:1049020072657475726E6564206572726F7220636F
:104912006F64653A2025640A004547423234302EDE
:1049220057415600665F6F70656E207265747572CE
:104932006E6564206572726F7220636F64653A20DF
:1049420025640A00665F636C6F7365207265747517
:10495200726E6564206572726F7220636F64653A6D
:104962002025640A00665F77726974652077726F2A
:104972007465202564206F66202564206279746541
:0C4982007320746F2066696C652E0000C5
:00000001FF
